{
  "contractName": "AuctionContract",
  "abi": [
    {
      "inputs": [
        {
          "internalType": "address",
          "name": "_itemToken",
          "type": "address"
        },
        {
          "internalType": "address",
          "name": "_supplyContract",
          "type": "address"
        },
        {
          "internalType": "string",
          "name": "_dirCID",
          "type": "string"
        }
      ],
      "stateMutability": "nonpayable",
      "type": "constructor"
    },
    {
      "anonymous": false,
      "inputs": [
        {
          "indexed": true,
          "internalType": "address",
          "name": "account",
          "type": "address"
        },
        {
          "indexed": true,
          "internalType": "address",
          "name": "operator",
          "type": "address"
        },
        {
          "indexed": false,
          "internalType": "bool",
          "name": "approved",
          "type": "bool"
        }
      ],
      "name": "ApprovalForAll",
      "type": "event"
    },
    {
      "anonymous": false,
      "inputs": [
        {
          "indexed": true,
          "internalType": "address",
          "name": "operator",
          "type": "address"
        },
        {
          "indexed": true,
          "internalType": "address",
          "name": "from",
          "type": "address"
        },
        {
          "indexed": true,
          "internalType": "address",
          "name": "to",
          "type": "address"
        },
        {
          "indexed": false,
          "internalType": "uint256[]",
          "name": "ids",
          "type": "uint256[]"
        },
        {
          "indexed": false,
          "internalType": "uint256[]",
          "name": "values",
          "type": "uint256[]"
        }
      ],
      "name": "TransferBatch",
      "type": "event"
    },
    {
      "anonymous": false,
      "inputs": [
        {
          "indexed": true,
          "internalType": "address",
          "name": "operator",
          "type": "address"
        },
        {
          "indexed": true,
          "internalType": "address",
          "name": "from",
          "type": "address"
        },
        {
          "indexed": true,
          "internalType": "address",
          "name": "to",
          "type": "address"
        },
        {
          "indexed": false,
          "internalType": "uint256",
          "name": "id",
          "type": "uint256"
        },
        {
          "indexed": false,
          "internalType": "uint256",
          "name": "value",
          "type": "uint256"
        }
      ],
      "name": "TransferSingle",
      "type": "event"
    },
    {
      "anonymous": false,
      "inputs": [
        {
          "indexed": false,
          "internalType": "string",
          "name": "value",
          "type": "string"
        },
        {
          "indexed": true,
          "internalType": "uint256",
          "name": "id",
          "type": "uint256"
        }
      ],
      "name": "URI",
      "type": "event"
    },
    {
      "inputs": [
        {
          "internalType": "uint256",
          "name": "",
          "type": "uint256"
        },
        {
          "internalType": "uint256",
          "name": "",
          "type": "uint256"
        }
      ],
      "name": "auctionBids",
      "outputs": [
        {
          "internalType": "address payable",
          "name": "from",
          "type": "address"
        },
        {
          "internalType": "uint256",
          "name": "amount",
          "type": "uint256"
        },
        {
          "internalType": "string",
          "name": "shippingTo",
          "type": "string"
        }
      ],
      "stateMutability": "view",
      "type": "function",
      "constant": true
    },
    {
      "inputs": [
        {
          "internalType": "address",
          "name": "account",
          "type": "address"
        },
        {
          "internalType": "uint256",
          "name": "id",
          "type": "uint256"
        }
      ],
      "name": "balanceOf",
      "outputs": [
        {
          "internalType": "uint256",
          "name": "",
          "type": "uint256"
        }
      ],
      "stateMutability": "view",
      "type": "function",
      "constant": true
    },
    {
      "inputs": [
        {
          "internalType": "address[]",
          "name": "accounts",
          "type": "address[]"
        },
        {
          "internalType": "uint256[]",
          "name": "ids",
          "type": "uint256[]"
        }
      ],
      "name": "balanceOfBatch",
      "outputs": [
        {
          "internalType": "uint256[]",
          "name": "",
          "type": "uint256[]"
        }
      ],
      "stateMutability": "view",
      "type": "function",
      "constant": true
    },
    {
      "inputs": [
        {
          "internalType": "address",
          "name": "from",
          "type": "address"
        },
        {
          "internalType": "address",
          "name": "to",
          "type": "address"
        },
        {
          "internalType": "uint256[]",
          "name": "ids",
          "type": "uint256[]"
        },
        {
          "internalType": "uint256[]",
          "name": "amounts",
          "type": "uint256[]"
        },
        {
          "internalType": "bytes",
          "name": "data",
          "type": "bytes"
        }
      ],
      "name": "safeBatchTransferFrom",
      "outputs": [],
      "stateMutability": "nonpayable",
      "type": "function"
    },
    {
      "inputs": [
        {
          "internalType": "address",
          "name": "from",
          "type": "address"
        },
        {
          "internalType": "address",
          "name": "to",
          "type": "address"
        },
        {
          "internalType": "uint256",
          "name": "id",
          "type": "uint256"
        },
        {
          "internalType": "uint256",
          "name": "amount",
          "type": "uint256"
        },
        {
          "internalType": "bytes",
          "name": "data",
          "type": "bytes"
        }
      ],
      "name": "safeTransferFrom",
      "outputs": [],
      "stateMutability": "nonpayable",
      "type": "function"
    },
    {
      "inputs": [
        {
          "internalType": "bytes4",
          "name": "interfaceId",
          "type": "bytes4"
        }
      ],
      "name": "supportsInterface",
      "outputs": [
        {
          "internalType": "bool",
          "name": "",
          "type": "bool"
        }
      ],
      "stateMutability": "view",
      "type": "function",
      "constant": true
    },
    {
      "inputs": [
        {
          "internalType": "uint256",
          "name": "",
          "type": "uint256"
        }
      ],
      "name": "uri",
      "outputs": [
        {
          "internalType": "string",
          "name": "",
          "type": "string"
        }
      ],
      "stateMutability": "view",
      "type": "function",
      "constant": true
    },
    {
      "inputs": [],
      "name": "getAuctionId",
      "outputs": [
        {
          "internalType": "uint256",
          "name": "",
          "type": "uint256"
        }
      ],
      "stateMutability": "view",
      "type": "function",
      "constant": true
    },
    {
      "inputs": [
        {
          "internalType": "uint256",
          "name": "_auctionId",
          "type": "uint256"
        }
      ],
      "name": "getBidsCount",
      "outputs": [
        {
          "internalType": "uint256",
          "name": "",
          "type": "uint256"
        }
      ],
      "stateMutability": "view",
      "type": "function",
      "constant": true
    },
    {
      "inputs": [
        {
          "internalType": "uint256",
          "name": "_auctionId",
          "type": "uint256"
        }
      ],
      "name": "getCurrentBid",
      "outputs": [
        {
          "internalType": "uint256",
          "name": "",
          "type": "uint256"
        }
      ],
      "stateMutability": "view",
      "type": "function",
      "constant": true
    },
    {
      "inputs": [
        {
          "internalType": "string",
          "name": "_dirCID",
          "type": "string"
        }
      ],
      "name": "createAuction",
      "outputs": [],
      "stateMutability": "nonpayable",
      "type": "function"
    },
    {
      "inputs": [
        {
          "internalType": "uint256",
          "name": "_auctionId",
          "type": "uint256"
        },
        {
          "internalType": "uint256",
          "name": "_itemId",
          "type": "uint256"
        },
        {
          "internalType": "address",
          "name": "_seller",
          "type": "address"
        }
      ],
      "name": "cancelAuction",
      "outputs": [],
      "stateMutability": "nonpayable",
      "type": "function"
    },
    {
      "inputs": [
        {
          "internalType": "uint256",
          "name": "_auctionId",
          "type": "uint256"
        },
        {
          "internalType": "uint256",
          "name": "_itemId",
          "type": "uint256"
        },
        {
          "internalType": "address",
          "name": "_seller",
          "type": "address"
        },
        {
          "internalType": "uint256",
          "name": "_amount",
          "type": "uint256"
        },
        {
          "internalType": "uint256",
          "name": "_blockDeadline",
          "type": "uint256"
        },
        {
          "internalType": "string",
          "name": "_shippingFrom",
          "type": "string"
        }
      ],
      "name": "finalizeAuction",
      "outputs": [],
      "stateMutability": "nonpayable",
      "type": "function"
    },
    {
      "inputs": [
        {
          "internalType": "uint256",
          "name": "_auctionId",
          "type": "uint256"
        },
        {
          "internalType": "string",
          "name": "_to",
          "type": "string"
        },
        {
          "internalType": "uint256",
          "name": "_amount",
          "type": "uint256"
        },
        {
          "internalType": "uint256",
          "name": "_startPrice",
          "type": "uint256"
        },
        {
          "internalType": "uint256",
          "name": "_startTime",
          "type": "uint256"
        },
        {
          "internalType": "uint256",
          "name": "_blockDeadline",
          "type": "uint256"
        }
      ],
      "name": "bidOnAuction",
      "outputs": [],
      "stateMutability": "payable",
      "type": "function",
      "payable": true
    },
    {
      "inputs": [
        {
          "internalType": "uint256",
          "name": "_auctionId",
          "type": "uint256"
        }
      ],
      "name": "getWinningPrice",
      "outputs": [
        {
          "internalType": "uint256",
          "name": "",
          "type": "uint256"
        }
      ],
      "stateMutability": "view",
      "type": "function",
      "constant": true
    },
    {
      "inputs": [
        {
          "internalType": "uint256",
          "name": "_auctionId",
          "type": "uint256"
        }
      ],
      "name": "getBidderInfo",
      "outputs": [
        {
          "components": [
            {
              "internalType": "address payable",
              "name": "from",
              "type": "address"
            },
            {
              "internalType": "uint256",
              "name": "amount",
              "type": "uint256"
            },
            {
              "internalType": "string",
              "name": "shippingTo",
              "type": "string"
            }
          ],
          "internalType": "struct AuctionContract.Bid",
          "name": "",
          "type": "tuple"
        }
      ],
      "stateMutability": "view",
      "type": "function",
      "constant": true
    },
    {
      "inputs": [
        {
          "internalType": "address",
          "name": "_from",
          "type": "address"
        },
        {
          "internalType": "uint256",
          "name": "_id",
          "type": "uint256"
        },
        {
          "internalType": "uint256",
          "name": "_amount",
          "type": "uint256"
        }
      ],
      "name": "burn",
      "outputs": [],
      "stateMutability": "nonpayable",
      "type": "function"
    },
    {
      "inputs": [
        {
          "internalType": "uint256",
          "name": "_itemId",
          "type": "uint256"
        }
      ],
      "name": "getPathByItemId",
      "outputs": [
        {
          "internalType": "string[][]",
          "name": "",
          "type": "string[][]"
        }
      ],
      "stateMutability": "view",
      "type": "function",
      "constant": true
    },
    {
      "inputs": [
        {
          "internalType": "address",
          "name": "_user",
          "type": "address"
        },
        {
          "internalType": "bool",
          "name": "flag",
          "type": "bool"
        }
      ],
      "name": "setApprovalForAll",
      "outputs": [],
      "stateMutability": "nonpayable",
      "type": "function"
    },
    {
      "inputs": [
        {
          "internalType": "address",
          "name": "_user",
          "type": "address"
        },
        {
          "internalType": "address",
          "name": "_contract",
          "type": "address"
        }
      ],
      "name": "isApprovedForAll",
      "outputs": [
        {
          "internalType": "bool",
          "name": "",
          "type": "bool"
        }
      ],
      "stateMutability": "view",
      "type": "function",
      "constant": true
    },
    {
      "inputs": [
        {
          "internalType": "address",
          "name": "_user",
          "type": "address"
        }
      ],
      "name": "setUserToGovernance",
      "outputs": [],
      "stateMutability": "nonpayable",
      "type": "function"
    }
  ],
  "bytecode": "0x608060405260405180604001604052806040518060400160405280601581526020017f68747470733a2f2f697066732e696f2f697066732f000000000000000000000081525081526020016040518060400160405280600a81526020017f2f7b69647d2e6a736f6e000000000000000000000000000000000000000000008152508152506007906002620000959291906200023b565b50348015620000a357600080fd5b50604051620063a6380380620063a68339818101604052810190620000c991906200051d565b6007600060028110620000e157620000e062000598565b5b0181604051602001620000f69291906200071c565b60405160208183030381529060405260076001600281106200011d576200011c62000598565b5b016040516020016200013192919062000744565b60405160208183030381529060405262000151816200022660201b60201c565b50600060058190555082600360006101000a81548173ffffffffffffffffffffffffffffffffffffffff021916908373ffffffffffffffffffffffffffffffffffffffff16021790555081600460006101000a81548173ffffffffffffffffffffffffffffffffffffffff021916908373ffffffffffffffffffffffffffffffffffffffff16021790555033600660006101000a81548173ffffffffffffffffffffffffffffffffffffffff021916908373ffffffffffffffffffffffffffffffffffffffff16021790555050505062000a1a565b806002908162000237919062000933565b5050565b82600281019282156200027b579160200282015b828111156200027a57825182908162000269919062000933565b50916020019190600101906200024f565b5b5090506200028a91906200028e565b5090565b5b80821115620002b25760008181620002a89190620002b6565b506001016200028f565b5090565b508054620002c490620005f6565b6000825580601f10620002d85750620002f9565b601f016020900490600052602060002090810190620002f89190620002fc565b5b50565b5b8082111562000317576000816000905550600101620002fd565b5090565b6000604051905090565b600080fd5b600080fd5b600073ffffffffffffffffffffffffffffffffffffffff82169050919050565b60006200035c826200032f565b9050919050565b6200036e816200034f565b81146200037a57600080fd5b50565b6000815190506200038e8162000363565b92915050565b600080fd5b600080fd5b6000601f19601f8301169050919050565b7f4e487b7100000000000000000000000000000000000000000000000000000000600052604160045260246000fd5b620003e9826200039e565b810181811067ffffffffffffffff821117156200040b576200040a620003af565b5b80604052505050565b6000620004206200031b565b90506200042e8282620003de565b919050565b600067ffffffffffffffff821115620004515762000450620003af565b5b6200045c826200039e565b9050602081019050919050565b60005b83811015620004895780820151818401526020810190506200046c565b8381111562000499576000848401525b50505050565b6000620004b6620004b08462000433565b62000414565b905082815260208101848484011115620004d557620004d462000399565b5b620004e284828562000469565b509392505050565b600082601f83011262000502576200050162000394565b5b8151620005148482602086016200049f565b91505092915050565b60008060006060848603121562000539576200053862000325565b5b600062000549868287016200037d565b93505060206200055c868287016200037d565b925050604084015167ffffffffffffffff81111562000580576200057f6200032a565b5b6200058e86828701620004ea565b9150509250925092565b7f4e487b7100000000000000000000000000000000000000000000000000000000600052603260045260246000fd5b7f4e487b7100000000000000000000000000000000000000000000000000000000600052602260045260246000fd5b600060028204905060018216806200060f57607f821691505b602082108103620006255762000624620005c7565b5b50919050565b600081905092915050565b60008190508160005260206000209050919050565b600081546200065a81620005f6565b6200066681866200062b565b945060018216600081146200068457600181146200069a57620006d1565b60ff1983168652811515820286019350620006d1565b620006a58562000636565b60005b83811015620006c957815481890152600182019150602081019050620006a8565b838801955050505b50505092915050565b600081519050919050565b6000620006f282620006da565b620006fe81856200062b565b93506200071081856020860162000469565b80840191505092915050565b60006200072a82856200064b565b9150620007388284620006e5565b91508190509392505050565b6000620007528285620006e5565b91506200076082846200064b565b91508190509392505050565b60006020601f8301049050919050565b600082821b905092915050565b600060088302620007bb7fffffffffffffffffffffffffffffffffffffffffffffffffffffffffffffffff826200077c565b620007c786836200077c565b95508019841693508086168417925050509392505050565b6000819050919050565b6000819050919050565b6000620008146200080e6200080884620007df565b620007e9565b620007df565b9050919050565b6000819050919050565b6200083083620007f3565b620008486200083f826200081b565b84845462000789565b825550505050565b600090565b6200085f62000850565b6200086c81848462000825565b505050565b5b8181101562000894576200088860008262000855565b60018101905062000872565b5050565b601f821115620008e357620008ad8162000636565b620008b8846200076c565b81016020851015620008c8578190505b620008e0620008d7856200076c565b83018262000871565b50505b505050565b600082821c905092915050565b60006200090860001984600802620008e8565b1980831691505092915050565b6000620009238383620008f5565b9150826002028217905092915050565b6200093e82620006da565b67ffffffffffffffff8111156200095a5762000959620003af565b5b620009668254620005f6565b6200097382828562000898565b600060209050601f831160018114620009ab576000841562000996578287015190505b620009a2858262000915565b86555062000a12565b601f198416620009bb8662000636565b60005b82811015620009e557848901518255600182019150602085019450602081019050620009be565b8683101562000a05578489015162000a01601f891682620008f5565b8355505b6001600288020188555050505b505050505050565b61597c8062000a2a6000396000f3fe6080604052600436106101295760003560e01c80638e27cb25116100ab578063da4e364f1161006f578063da4e364f14610418578063e985e9c514610455578063f242432a14610492578063f5298aca146104bb578063fa96fec4146104e4578063ff6a6d651461052157610129565b80638e27cb2514610335578063a22cb4651461035e578063c6dc720214610387578063cdc90bfe146103c4578063d95175d3146103ef57610129565b80634008f9c0116100f25780634008f9c0146102375780634e1273f4146102745780635a2f1f42146102b15780635f93de49146102cd5780638d7a686f1461030c57610129565b8062fdd58e1461012e57806301ffc9a71461016b5780630e89341c146101a85780632d212694146101e55780632eb2c2d61461020e575b600080fd5b34801561013a57600080fd5b5061015560048036038101906101509190613836565b61055e565b6040516101629190613885565b60405180910390f35b34801561017757600080fd5b50610192600480360381019061018d91906138f8565b610626565b60405161019f9190613940565b60405180910390f35b3480156101b457600080fd5b506101cf60048036038101906101ca919061395b565b610708565b6040516101dc9190613a21565b60405180910390f35b3480156101f157600080fd5b5061020c60048036038101906102079190613a43565b61079c565b005b34801561021a57600080fd5b5061023560048036038101906102309190613c6d565b610870565b005b34801561024357600080fd5b5061025e6004803603810190610259919061395b565b610911565b60405161026b9190613885565b60405180910390f35b34801561028057600080fd5b5061029b60048036038101906102969190613dff565b610931565b6040516102a89190613f35565b60405180910390f35b6102cb60048036038101906102c69190613ff8565b610a4a565b005b3480156102d957600080fd5b506102f460048036038101906102ef91906140a1565b610ef4565b60405161030393929190614102565b60405180910390f35b34801561031857600080fd5b50610333600480360381019061032e9190614140565b610fe3565b005b34801561034157600080fd5b5061035c600480360381019061035791906141e9565b6113c3565b005b34801561036a57600080fd5b506103856004803603810190610380919061425e565b6114bc565b005b34801561039357600080fd5b506103ae60048036038101906103a9919061395b565b6115de565b6040516103bb919061446c565b60405180910390f35b3480156103d057600080fd5b506103d961174e565b6040516103e69190613885565b60405180910390f35b3480156103fb57600080fd5b506104166004803603810190610411919061448e565b611758565b005b34801561042457600080fd5b5061043f600480360381019061043a919061395b565b611a81565b60405161044c9190613885565b60405180910390f35b34801561046157600080fd5b5061047c600480360381019061047791906144e1565b611bff565b6040516104899190613940565b60405180910390f35b34801561049e57600080fd5b506104b960048036038101906104b49190614521565b611d3f565b005b3480156104c757600080fd5b506104e260048036038101906104dd91906145b8565b611de0565b005b3480156104f057600080fd5b5061050b6004803603810190610506919061395b565b611df0565b6040516105189190613885565b60405180910390f35b34801561052d57600080fd5b506105486004803603810190610543919061395b565b611e57565b604051610555919061466a565b60405180910390f35b60008073ffffffffffffffffffffffffffffffffffffffff168373ffffffffffffffffffffffffffffffffffffffff16036105ce576040517f08c379a00000000000000000000000000000000000000000000000000000000081526004016105c5906146fe565b60405180910390fd5b60008083815260200190815260200160002060008473ffffffffffffffffffffffffffffffffffffffff1673ffffffffffffffffffffffffffffffffffffffff16815260200190815260200160002054905092915050565b60007fd9b67a26000000000000000000000000000000000000000000000000000000007bffffffffffffffffffffffffffffffffffffffffffffffffffffffff1916827bffffffffffffffffffffffffffffffffffffffffffffffffffffffff191614806106f157507f0e89341c000000000000000000000000000000000000000000000000000000007bffffffffffffffffffffffffffffffffffffffffffffffffffffffff1916827bffffffffffffffffffffffffffffffffffffffffffffffffffffffff1916145b806107015750610700826120f7565b5b9050919050565b6060600280546107179061474d565b80601f01602080910402602001604051908101604052809291908181526020018280546107439061474d565b80156107905780601f1061076557610100808354040283529160200191610790565b820191906000526020600020905b81548152906001019060200180831161077357829003601f168201915b50505050509050919050565b600660009054906101000a900473ffffffffffffffffffffffffffffffffffffffff1673ffffffffffffffffffffffffffffffffffffffff163373ffffffffffffffffffffffffffffffffffffffff161461082c576040517f08c379a0000000000000000000000000000000000000000000000000000000008152600401610823906147ca565b60405180910390fd5b80600660006101000a81548173ffffffffffffffffffffffffffffffffffffffff021916908373ffffffffffffffffffffffffffffffffffffffff16021790555050565b610878612161565b73ffffffffffffffffffffffffffffffffffffffff168573ffffffffffffffffffffffffffffffffffffffff1614806108be57506108bd856108b8612161565b611bff565b5b6108fd576040517f08c379a00000000000000000000000000000000000000000000000000000000081526004016108f49061485c565b60405180910390fd5b61090a8585858585612169565b5050505050565b6000600a6000838152602001908152602001600020805490509050919050565b60608151835114610977576040517f08c379a000000000000000000000000000000000000000000000000000000000815260040161096e906148ee565b60405180910390fd5b6000835167ffffffffffffffff81111561099457610993613a75565b5b6040519080825280602002602001820160405280156109c25781602001602082028036833780820191505090505b50905060005b8451811015610a3f57610a0f8582815181106109e7576109e661490e565b5b6020026020010151858381518110610a0257610a0161490e565b5b602002602001015161055e565b828281518110610a2257610a2161490e565b5b60200260200101818152505080610a389061496c565b90506109c8565b508091505092915050565b60004290506000839050600083905080831180610a6657508183105b15610a7057600080fd5b6000600a60008b81526020019081526020016000208054905090506000879050610a986135d8565b818a1015610aa557600080fd5b818a11610ae7576040517f08c379a0000000000000000000000000000000000000000000000000000000008152600401610ade90614a00565b60405180910390fd5b6000831115610dec57600a60008d8152602001908152602001600020600184610b109190614a20565b81548110610b2157610b2061490e565b5b90600052602060002090600302016040518060600160405290816000820160009054906101000a900473ffffffffffffffffffffffffffffffffffffffff1673ffffffffffffffffffffffffffffffffffffffff1673ffffffffffffffffffffffffffffffffffffffff16815260200160018201548152602001600282018054610baa9061474d565b80601f0160208091040260200160405190810160405280929190818152602001828054610bd69061474d565b8015610c235780601f10610bf857610100808354040283529160200191610c23565b820191906000526020600020905b815481529060010190602001808311610c0657829003601f168201915b505050505081525050905080602001519150818a11610c77576040517f08c379a0000000000000000000000000000000000000000000000000000000008152600401610c6e90614aa0565b60405180910390fd5b600360009054906101000a900473ffffffffffffffffffffffffffffffffffffffff1673ffffffffffffffffffffffffffffffffffffffff1663f242432a33600660009054906101000a900473ffffffffffffffffffffffffffffffffffffffff1660008e6040518563ffffffff1660e01b8152600401610cfb9493929190614ba0565b600060405180830381600087803b158015610d1557600080fd5b505af1158015610d29573d6000803e3d6000fd5b50505050600360009054906101000a900473ffffffffffffffffffffffffffffffffffffffff1673ffffffffffffffffffffffffffffffffffffffff1663f242432a600660009054906101000a900473ffffffffffffffffffffffffffffffffffffffff168360000151600085602001516040518563ffffffff1660e01b8152600401610db99493929190614bf8565b600060405180830381600087803b158015610dd357600080fd5b505af1158015610de7573d6000803e3d6000fd5b505050505b610df46135d8565b33816000019073ffffffffffffffffffffffffffffffffffffffff16908173ffffffffffffffffffffffffffffffffffffffff16815250508a8160200181815250508b8160400181905250600a60008e815260200190815260200160002081908060018154018082558091505060019003906000526020600020906003020160009091909190915060008201518160000160006101000a81548173ffffffffffffffffffffffffffffffffffffffff021916908373ffffffffffffffffffffffffffffffffffffffff160217905550602082015181600101556040820151816002019081610ee29190614df2565b50505050505050505050505050505050565b600a6020528160005260406000208181548110610f1057600080fd5b9060005260206000209060030201600091509150508060000160009054906101000a900473ffffffffffffffffffffffffffffffffffffffff1690806001015490806002018054610f609061474d565b80601f0160208091040260200160405190810160405280929190818152602001828054610f8c9061474d565b8015610fd95780601f10610fae57610100808354040283529160200191610fd9565b820191906000526020600020905b815481529060010190602001808311610fbc57829003601f168201915b5050505050905083565b856001610ff0338361055e565b14610ffa57600080fd5b6000600a600089815260200190815260200160002080549050905060004290508481101561102757600080fd5b6000820361103f5761103a898989611758565b6113b8565b6000600a60008b81526020019081526020016000206001846110619190614a20565b815481106110725761107161490e565b5b90600052602060002090600302016040518060600160405290816000820160009054906101000a900473ffffffffffffffffffffffffffffffffffffffff1673ffffffffffffffffffffffffffffffffffffffff1673ffffffffffffffffffffffffffffffffffffffff168152602001600182015481526020016002820180546110fb9061474d565b80601f01602080910402602001604051908101604052809291908181526020018280546111279061474d565b80156111745780601f1061114957610100808354040283529160200191611174565b820191906000526020600020905b81548152906001019060200180831161115757829003601f168201915b5050505050815250509050600360009054906101000a900473ffffffffffffffffffffffffffffffffffffffff1673ffffffffffffffffffffffffffffffffffffffff1663f242432a600660009054906101000a900473ffffffffffffffffffffffffffffffffffffffff1633600085602001516040518563ffffffff1660e01b81526004016112079493929190614ec4565b600060405180830381600087803b15801561122157600080fd5b505af1158015611235573d6000803e3d6000fd5b50505050600360009054906101000a900473ffffffffffffffffffffffffffffffffffffffff1673ffffffffffffffffffffffffffffffffffffffff1663f242432a3383600001518c8b6040518563ffffffff1660e01b815260040161129e9493929190614f1c565b600060405180830381600087803b1580156112b857600080fd5b505af11580156112cc573d6000803e3d6000fd5b50505050611313600660009054906101000a900473ffffffffffffffffffffffffffffffffffffffff1682600001518c600160405180602001604052806000815250611d3f565b6113298a8a8a846000015189866040015161248a565b600460009054906101000a900473ffffffffffffffffffffffffffffffffffffffff1673ffffffffffffffffffffffffffffffffffffffff1663843e637a8b6040518263ffffffff1660e01b81526004016113849190613885565b600060405180830381600087803b15801561139e57600080fd5b505af11580156113b2573d6000803e3d6000fd5b50505050505b505050505050505050565b600560008154809291906113d69061496c565b9190505550600060076000600281106113f2576113f161490e565b5b0182604051602001611405929190615033565b60405160208183030381529060405260076001600281106114295761142861490e565b5b0160405160200161143b929190615057565b604051602081830303815290604052905080600960006005548152602001908152602001600020908161146e9190614df2565b50611478816128d9565b6114b8600660009054906101000a900473ffffffffffffffffffffffffffffffffffffffff166005546001604051806020016040528060008152506128ec565b5050565b60008290506000600660009054906101000a900473ffffffffffffffffffffffffffffffffffffffff169050600660009054906101000a900473ffffffffffffffffffffffffffffffffffffffff1673ffffffffffffffffffffffffffffffffffffffff168473ffffffffffffffffffffffffffffffffffffffff16146115d857611548828285612a9c565b600360009054906101000a900473ffffffffffffffffffffffffffffffffffffffff1673ffffffffffffffffffffffffffffffffffffffff1663a22cb46583856040518363ffffffff1660e01b81526004016115a592919061507b565b600060405180830381600087803b1580156115bf57600080fd5b505af11580156115d3573d6000803e3d6000fd5b505050505b50505050565b6060600b60003373ffffffffffffffffffffffffffffffffffffffff1673ffffffffffffffffffffffffffffffffffffffff1681526020019081526020016000206000838152602001908152602001600020805480602002602001604051908101604052809291908181526020016000905b8282101561174357838290600052602060002001805480602002602001604051908101604052809291908181526020016000905b828210156117305783829060005260206000200180546116a39061474d565b80601f01602080910402602001604051908101604052809291908181526020018280546116cf9061474d565b801561171c5780601f106116f15761010080835404028352916020019161171c565b820191906000526020600020905b8154815290600101906020018083116116ff57829003601f168201915b505050505081526020019060010190611684565b5050505081526020019060010190611650565b505050509050919050565b6000600554905090565b826001611765338361055e565b1461176f57600080fd5b6000600a60008681526020019081526020016000208054905090506000811115611a7a576000600a60008781526020019081526020016000206001836117b59190614a20565b815481106117c6576117c561490e565b5b90600052602060002090600302016040518060600160405290816000820160009054906101000a900473ffffffffffffffffffffffffffffffffffffffff1673ffffffffffffffffffffffffffffffffffffffff1673ffffffffffffffffffffffffffffffffffffffff1681526020016001820154815260200160028201805461184f9061474d565b80601f016020809104026020016040519081016040528092919081815260200182805461187b9061474d565b80156118c85780601f1061189d576101008083540402835291602001916118c8565b820191906000526020600020905b8154815290600101906020018083116118ab57829003601f168201915b5050505050815250509050600360009054906101000a900473ffffffffffffffffffffffffffffffffffffffff1673ffffffffffffffffffffffffffffffffffffffff1663f242432a600660009054906101000a900473ffffffffffffffffffffffffffffffffffffffff168360000151600085602001516040518563ffffffff1660e01b815260040161195f9493929190614bf8565b600060405180830381600087803b15801561197957600080fd5b505af115801561198d573d6000803e3d6000fd5b50505050600360009054906101000a900473ffffffffffffffffffffffffffffffffffffffff1673ffffffffffffffffffffffffffffffffffffffff1663f242432a600660009054906101000a900473ffffffffffffffffffffffffffffffffffffffff16868885602001516040518563ffffffff1660e01b8152600401611a1894939291906150a4565b600060405180830381600087803b158015611a3257600080fd5b505af1158015611a46573d6000803e3d6000fd5b50505050611a78600660009054906101000a900473ffffffffffffffffffffffffffffffffffffffff16876001611de0565b505b5050505050565b600080600a60008481526020019081526020016000208054905090506000811115611bf4576000600a6000858152602001908152602001600020600183611ac89190614a20565b81548110611ad957611ad861490e565b5b90600052602060002090600302016040518060600160405290816000820160009054906101000a900473ffffffffffffffffffffffffffffffffffffffff1673ffffffffffffffffffffffffffffffffffffffff1673ffffffffffffffffffffffffffffffffffffffff16815260200160018201548152602001600282018054611b629061474d565b80601f0160208091040260200160405190810160405280929190818152602001828054611b8e9061474d565b8015611bdb5780601f10611bb057610100808354040283529160200191611bdb565b820191906000526020600020905b815481529060010190602001808311611bbe57829003601f168201915b5050505050815250509050806020015192505050611bfa565b60009150505b919050565b6000808390506000600660009054906101000a900473ffffffffffffffffffffffffffffffffffffffff169050600660009054906101000a900473ffffffffffffffffffffffffffffffffffffffff1673ffffffffffffffffffffffffffffffffffffffff168573ffffffffffffffffffffffffffffffffffffffff1603611c85578390505b611c8f8282612c08565b8015611d355750600360009054906101000a900473ffffffffffffffffffffffffffffffffffffffff1673ffffffffffffffffffffffffffffffffffffffff1663e985e9c583836040518363ffffffff1660e01b8152600401611cf39291906150fc565b602060405180830381865afa158015611d10573d6000803e3d6000fd5b505050506040513d601f19601f82011682018060405250810190611d34919061513a565b5b9250505092915050565b611d47612161565b73ffffffffffffffffffffffffffffffffffffffff168573ffffffffffffffffffffffffffffffffffffffff161480611d8d5750611d8c85611d87612161565b611bff565b5b611dcc576040517f08c379a0000000000000000000000000000000000000000000000000000000008152600401611dc39061485c565b60405180910390fd5b611dd98585858585612c9c565b5050505050565b611deb838383612f37565b505050565b600080600a6000848152602001908152602001600020805490509050600a6000848152602001908152602001600020600182611e2c9190614a20565b81548110611e3d57611e3c61490e565b5b906000526020600020906003020160010154915050919050565b611e5f6135d8565b6000600a6000848152602001908152602001600020805480602002602001604051908101604052809291908181526020016000905b82821015611fb857838290600052602060002090600302016040518060600160405290816000820160009054906101000a900473ffffffffffffffffffffffffffffffffffffffff1673ffffffffffffffffffffffffffffffffffffffff1673ffffffffffffffffffffffffffffffffffffffff16815260200160018201548152602001600282018054611f279061474d565b80601f0160208091040260200160405190810160405280929190818152602001828054611f539061474d565b8015611fa05780601f10611f7557610100808354040283529160200191611fa0565b820191906000526020600020905b815481529060010190602001808311611f8357829003601f168201915b50505050508152505081526020019060010190611e94565b505050509050600a6000848152602001908152602001600020815181548110611fe457611fe361490e565b5b90600052602060002090600302016040518060600160405290816000820160009054906101000a900473ffffffffffffffffffffffffffffffffffffffff1673ffffffffffffffffffffffffffffffffffffffff1673ffffffffffffffffffffffffffffffffffffffff1681526020016001820154815260200160028201805461206d9061474d565b80601f01602080910402602001604051908101604052809291908181526020018280546120999061474d565b80156120e65780601f106120bb576101008083540402835291602001916120e6565b820191906000526020600020905b8154815290600101906020018083116120c957829003601f168201915b505050505081525050915050919050565b60007f01ffc9a7000000000000000000000000000000000000000000000000000000007bffffffffffffffffffffffffffffffffffffffffffffffffffffffff1916827bffffffffffffffffffffffffffffffffffffffffffffffffffffffff1916149050919050565b600033905090565b81518351146121ad576040517f08c379a00000000000000000000000000000000000000000000000000000000081526004016121a4906151d9565b60405180910390fd5b600073ffffffffffffffffffffffffffffffffffffffff168473ffffffffffffffffffffffffffffffffffffffff160361221c576040517f08c379a00000000000000000000000000000000000000000000000000000000081526004016122139061526b565b60405180910390fd5b6000612226612161565b905061223681878787878761317d565b60005b84518110156123e75760008582815181106122575761225661490e565b5b6020026020010151905060008583815181106122765761227561490e565b5b60200260200101519050600080600084815260200190815260200160002060008b73ffffffffffffffffffffffffffffffffffffffff1673ffffffffffffffffffffffffffffffffffffffff16815260200190815260200160002054905081811015612317576040517f08c379a000000000000000000000000000000000000000000000000000000000815260040161230e906152fd565b60405180910390fd5b81810360008085815260200190815260200160002060008c73ffffffffffffffffffffffffffffffffffffffff1673ffffffffffffffffffffffffffffffffffffffff168152602001908152602001600020819055508160008085815260200190815260200160002060008b73ffffffffffffffffffffffffffffffffffffffff1673ffffffffffffffffffffffffffffffffffffffff16815260200190815260200160002060008282546123cc919061531d565b92505081905550505050806123e09061496c565b9050612239565b508473ffffffffffffffffffffffffffffffffffffffff168673ffffffffffffffffffffffffffffffffffffffff168273ffffffffffffffffffffffffffffffffffffffff167f4a39dc06d4c0dbc64b70af90fd698a233a518aa5d07e595d983b8c0526c8f7fb878760405161245e929190615373565b60405180910390a4612474818787878787613185565b61248281878787878761318d565b505050505050565b60606000600b60008773ffffffffffffffffffffffffffffffffffffffff1673ffffffffffffffffffffffffffffffffffffffff1681526020019081526020016000206000888152602001908152602001600020805480602002602001604051908101604052809291908181526020016000905b828210156125f157838290600052602060002001805480602002602001604051908101604052809291908181526020016000905b828210156125de5783829060005260206000200180546125519061474d565b80601f016020809104026020016040519081016040528092919081815260200182805461257d9061474d565b80156125ca5780601f1061259f576101008083540402835291602001916125ca565b820191906000526020600020905b8154815290600101906020018083116125ad57829003601f168201915b505050505081526020019060010190612532565b50505050815260200190600101906124fe565b5050505090506000600b60008773ffffffffffffffffffffffffffffffffffffffff1673ffffffffffffffffffffffffffffffffffffffff1681526020019081526020016000206000898152602001908152602001600020805480602002602001604051908101604052809291908181526020016000905b8282101561275c57838290600052602060002001805480602002602001604051908101604052809291908181526020016000905b828210156127495783829060005260206000200180546126bc9061474d565b80601f01602080910402602001604051908101604052809291908181526020018280546126e89061474d565b80156127355780601f1061270a57610100808354040283529160200191612735565b820191906000526020600020905b81548152906001019060200180831161271857829003601f168201915b50505050508152602001906001019061269d565b5050505081526020019060010190612669565b50505050905060008251036127cc5784836000815181106127805761277f61490e565b5b602002602001018190525083836001815181106127a05761279f61490e565b5b602002602001018190525082818251815181106127c0576127bf61490e565b5b60200260200101819052505b60005b8251811015612868578281815181106127eb576127ea61490e565b5b60200260200101519350858485518151811061280a5761280961490e565b5b6020026020010181905250858485518151811061282a5761282961490e565b5b6020026020010181905250838283518151811061284a5761284961490e565b5b602002602001018190525080806128609061496c565b9150506127cf565b5080600b60008873ffffffffffffffffffffffffffffffffffffffff1673ffffffffffffffffffffffffffffffffffffffff16815260200190815260200160002060008a815260200190815260200160002090805190602001906128cd92919061360f565b50505050505050505050565b80600290816128e89190614df2565b5050565b600073ffffffffffffffffffffffffffffffffffffffff168473ffffffffffffffffffffffffffffffffffffffff160361295b576040517f08c379a00000000000000000000000000000000000000000000000000000000081526004016129529061541c565b60405180910390fd5b6000612965612161565b9050600061297285613364565b9050600061297f85613364565b90506129908360008985858961317d565b8460008088815260200190815260200160002060008973ffffffffffffffffffffffffffffffffffffffff1673ffffffffffffffffffffffffffffffffffffffff16815260200190815260200160002060008282546129ef919061531d565b925050819055508673ffffffffffffffffffffffffffffffffffffffff16600073ffffffffffffffffffffffffffffffffffffffff168473ffffffffffffffffffffffffffffffffffffffff167fc3d58168c5ae7397731d063d5bbf3d657854427343f4c083240f7aacaa2d0f628989604051612a6d92919061543c565b60405180910390a4612a8483600089858589613185565b612a93836000898989896133de565b50505050505050565b8173ffffffffffffffffffffffffffffffffffffffff168373ffffffffffffffffffffffffffffffffffffffff1603612b0a576040517f08c379a0000000000000000000000000000000000000000000000000000000008152600401612b01906154d7565b60405180910390fd5b80600160008573ffffffffffffffffffffffffffffffffffffffff1673ffffffffffffffffffffffffffffffffffffffff16815260200190815260200160002060008473ffffffffffffffffffffffffffffffffffffffff1673ffffffffffffffffffffffffffffffffffffffff16815260200190815260200160002060006101000a81548160ff0219169083151502179055508173ffffffffffffffffffffffffffffffffffffffff168373ffffffffffffffffffffffffffffffffffffffff167f17307eab39ab6107e8899845ad3d59bd9653f200f220920489ca2b5937696c3183604051612bfb9190613940565b60405180910390a3505050565b6000600160008473ffffffffffffffffffffffffffffffffffffffff1673ffffffffffffffffffffffffffffffffffffffff16815260200190815260200160002060008373ffffffffffffffffffffffffffffffffffffffff1673ffffffffffffffffffffffffffffffffffffffff16815260200190815260200160002060009054906101000a900460ff16905092915050565b600073ffffffffffffffffffffffffffffffffffffffff168473ffffffffffffffffffffffffffffffffffffffff1603612d0b576040517f08c379a0000000000000000000000000000000000000000000000000000000008152600401612d029061526b565b60405180910390fd5b6000612d15612161565b90506000612d2285613364565b90506000612d2f85613364565b9050612d3f83898985858961317d565b600080600088815260200190815260200160002060008a73ffffffffffffffffffffffffffffffffffffffff1673ffffffffffffffffffffffffffffffffffffffff16815260200190815260200160002054905085811015612dd6576040517f08c379a0000000000000000000000000000000000000000000000000000000008152600401612dcd906152fd565b60405180910390fd5b85810360008089815260200190815260200160002060008b73ffffffffffffffffffffffffffffffffffffffff1673ffffffffffffffffffffffffffffffffffffffff168152602001908152602001600020819055508560008089815260200190815260200160002060008a73ffffffffffffffffffffffffffffffffffffffff1673ffffffffffffffffffffffffffffffffffffffff1681526020019081526020016000206000828254612e8b919061531d565b925050819055508773ffffffffffffffffffffffffffffffffffffffff168973ffffffffffffffffffffffffffffffffffffffff168573ffffffffffffffffffffffffffffffffffffffff167fc3d58168c5ae7397731d063d5bbf3d657854427343f4c083240f7aacaa2d0f628a8a604051612f0892919061543c565b60405180910390a4612f1e848a8a86868a613185565b612f2c848a8a8a8a8a6133de565b505050505050505050565b600073ffffffffffffffffffffffffffffffffffffffff168373ffffffffffffffffffffffffffffffffffffffff1603612fa6576040517f08c379a0000000000000000000000000000000000000000000000000000000008152600401612f9d90615569565b60405180910390fd5b6000612fb0612161565b90506000612fbd84613364565b90506000612fca84613364565b9050612fea8387600085856040518060200160405280600081525061317d565b600080600087815260200190815260200160002060008873ffffffffffffffffffffffffffffffffffffffff1673ffffffffffffffffffffffffffffffffffffffff16815260200190815260200160002054905084811015613081576040517f08c379a0000000000000000000000000000000000000000000000000000000008152600401613078906155fb565b60405180910390fd5b84810360008088815260200190815260200160002060008973ffffffffffffffffffffffffffffffffffffffff1673ffffffffffffffffffffffffffffffffffffffff16815260200190815260200160002081905550600073ffffffffffffffffffffffffffffffffffffffff168773ffffffffffffffffffffffffffffffffffffffff168573ffffffffffffffffffffffffffffffffffffffff167fc3d58168c5ae7397731d063d5bbf3d657854427343f4c083240f7aacaa2d0f62898960405161314e92919061543c565b60405180910390a461317484886000868660405180602001604052806000815250613185565b50505050505050565b505050505050565b505050505050565b6131ac8473ffffffffffffffffffffffffffffffffffffffff166135b5565b1561335c578373ffffffffffffffffffffffffffffffffffffffff1663bc197c8187878686866040518663ffffffff1660e01b81526004016131f295949392919061565f565b6020604051808303816000875af192505050801561322e57506040513d601f19601f8201168201806040525081019061322b91906156dc565b60015b6132d35761323a615716565b806308c379a003613296575061324e615738565b806132595750613298565b806040517f08c379a000000000000000000000000000000000000000000000000000000000815260040161328d9190613a21565b60405180910390fd5b505b6040517f08c379a00000000000000000000000000000000000000000000000000000000081526004016132ca9061583a565b60405180910390fd5b63bc197c8160e01b7bffffffffffffffffffffffffffffffffffffffffffffffffffffffff1916817bffffffffffffffffffffffffffffffffffffffffffffffffffffffff19161461335a576040517f08c379a0000000000000000000000000000000000000000000000000000000008152600401613351906158cc565b60405180910390fd5b505b505050505050565b60606000600167ffffffffffffffff81111561338357613382613a75565b5b6040519080825280602002602001820160405280156133b15781602001602082028036833780820191505090505b50905082816000815181106133c9576133c861490e565b5b60200260200101818152505080915050919050565b6133fd8473ffffffffffffffffffffffffffffffffffffffff166135b5565b156135ad578373ffffffffffffffffffffffffffffffffffffffff1663f23a6e6187878686866040518663ffffffff1660e01b81526004016134439594939291906158ec565b6020604051808303816000875af192505050801561347f57506040513d601f19601f8201168201806040525081019061347c91906156dc565b60015b6135245761348b615716565b806308c379a0036134e7575061349f615738565b806134aa57506134e9565b806040517f08c379a00000000000000000000000000000000000000000000000000000000081526004016134de9190613a21565b60405180910390fd5b505b6040517f08c379a000000000000000000000000000000000000000000000000000000000815260040161351b9061583a565b60405180910390fd5b63f23a6e6160e01b7bffffffffffffffffffffffffffffffffffffffffffffffffffffffff1916817bffffffffffffffffffffffffffffffffffffffffffffffffffffffff1916146135ab576040517f08c379a00000000000000000000000000000000000000000000000000000000081526004016135a2906158cc565b60405180910390fd5b505b505050505050565b6000808273ffffffffffffffffffffffffffffffffffffffff163b119050919050565b6040518060600160405280600073ffffffffffffffffffffffffffffffffffffffff16815260200160008152602001606081525090565b82805482825590600052602060002090810192821561365e579160200282015b8281111561365d57825182908051906020019061364d92919061366f565b509160200191906001019061362f565b5b50905061366b91906136c8565b5090565b8280548282559060005260206000209081019282156136b7579160200282015b828111156136b65782518290816136a69190614df2565b509160200191906001019061368f565b5b5090506136c491906136ec565b5090565b5b808211156136e857600081816136df9190613710565b506001016136c9565b5090565b5b8082111561370c57600081816137039190613731565b506001016136ed565b5090565b508054600082559060005260206000209081019061372e91906136ec565b50565b50805461373d9061474d565b6000825580601f1061374f575061376e565b601f01602090049060005260206000209081019061376d9190613771565b5b50565b5b8082111561378a576000816000905550600101613772565b5090565b6000604051905090565b600080fd5b600080fd5b600073ffffffffffffffffffffffffffffffffffffffff82169050919050565b60006137cd826137a2565b9050919050565b6137dd816137c2565b81146137e857600080fd5b50565b6000813590506137fa816137d4565b92915050565b6000819050919050565b61381381613800565b811461381e57600080fd5b50565b6000813590506138308161380a565b92915050565b6000806040838503121561384d5761384c613798565b5b600061385b858286016137eb565b925050602061386c85828601613821565b9150509250929050565b61387f81613800565b82525050565b600060208201905061389a6000830184613876565b92915050565b60007fffffffff0000000000000000000000000000000000000000000000000000000082169050919050565b6138d5816138a0565b81146138e057600080fd5b50565b6000813590506138f2816138cc565b92915050565b60006020828403121561390e5761390d613798565b5b600061391c848285016138e3565b91505092915050565b60008115159050919050565b61393a81613925565b82525050565b60006020820190506139556000830184613931565b92915050565b60006020828403121561397157613970613798565b5b600061397f84828501613821565b91505092915050565b600081519050919050565b600082825260208201905092915050565b60005b838110156139c25780820151818401526020810190506139a7565b838111156139d1576000848401525b50505050565b6000601f19601f8301169050919050565b60006139f382613988565b6139fd8185613993565b9350613a0d8185602086016139a4565b613a16816139d7565b840191505092915050565b60006020820190508181036000830152613a3b81846139e8565b905092915050565b600060208284031215613a5957613a58613798565b5b6000613a67848285016137eb565b91505092915050565b600080fd5b7f4e487b7100000000000000000000000000000000000000000000000000000000600052604160045260246000fd5b613aad826139d7565b810181811067ffffffffffffffff82111715613acc57613acb613a75565b5b80604052505050565b6000613adf61378e565b9050613aeb8282613aa4565b919050565b600067ffffffffffffffff821115613b0b57613b0a613a75565b5b602082029050602081019050919050565b600080fd5b6000613b34613b2f84613af0565b613ad5565b90508083825260208201905060208402830185811115613b5757613b56613b1c565b5b835b81811015613b805780613b6c8882613821565b845260208401935050602081019050613b59565b5050509392505050565b600082601f830112613b9f57613b9e613a70565b5b8135613baf848260208601613b21565b91505092915050565b600080fd5b600067ffffffffffffffff821115613bd857613bd7613a75565b5b613be1826139d7565b9050602081019050919050565b82818337600083830152505050565b6000613c10613c0b84613bbd565b613ad5565b905082815260208101848484011115613c2c57613c2b613bb8565b5b613c37848285613bee565b509392505050565b600082601f830112613c5457613c53613a70565b5b8135613c64848260208601613bfd565b91505092915050565b600080600080600060a08688031215613c8957613c88613798565b5b6000613c97888289016137eb565b9550506020613ca8888289016137eb565b945050604086013567ffffffffffffffff811115613cc957613cc861379d565b5b613cd588828901613b8a565b935050606086013567ffffffffffffffff811115613cf657613cf561379d565b5b613d0288828901613b8a565b925050608086013567ffffffffffffffff811115613d2357613d2261379d565b5b613d2f88828901613c3f565b9150509295509295909350565b600067ffffffffffffffff821115613d5757613d56613a75565b5b602082029050602081019050919050565b6000613d7b613d7684613d3c565b613ad5565b90508083825260208201905060208402830185811115613d9e57613d9d613b1c565b5b835b81811015613dc75780613db388826137eb565b845260208401935050602081019050613da0565b5050509392505050565b600082601f830112613de657613de5613a70565b5b8135613df6848260208601613d68565b91505092915050565b60008060408385031215613e1657613e15613798565b5b600083013567ffffffffffffffff811115613e3457613e3361379d565b5b613e4085828601613dd1565b925050602083013567ffffffffffffffff811115613e6157613e6061379d565b5b613e6d85828601613b8a565b9150509250929050565b600081519050919050565b600082825260208201905092915050565b6000819050602082019050919050565b613eac81613800565b82525050565b6000613ebe8383613ea3565b60208301905092915050565b6000602082019050919050565b6000613ee282613e77565b613eec8185613e82565b9350613ef783613e93565b8060005b83811015613f28578151613f0f8882613eb2565b9750613f1a83613eca565b925050600181019050613efb565b5085935050505092915050565b60006020820190508181036000830152613f4f8184613ed7565b905092915050565b600067ffffffffffffffff821115613f7257613f71613a75565b5b613f7b826139d7565b9050602081019050919050565b6000613f9b613f9684613f57565b613ad5565b905082815260208101848484011115613fb757613fb6613bb8565b5b613fc2848285613bee565b509392505050565b600082601f830112613fdf57613fde613a70565b5b8135613fef848260208601613f88565b91505092915050565b60008060008060008060c0878903121561401557614014613798565b5b600061402389828a01613821565b965050602087013567ffffffffffffffff8111156140445761404361379d565b5b61405089828a01613fca565b955050604061406189828a01613821565b945050606061407289828a01613821565b935050608061408389828a01613821565b92505060a061409489828a01613821565b9150509295509295509295565b600080604083850312156140b8576140b7613798565b5b60006140c685828601613821565b92505060206140d785828601613821565b9150509250929050565b60006140ec826137a2565b9050919050565b6140fc816140e1565b82525050565b600060608201905061411760008301866140f3565b6141246020830185613876565b818103604083015261413681846139e8565b9050949350505050565b60008060008060008060c0878903121561415d5761415c613798565b5b600061416b89828a01613821565b965050602061417c89828a01613821565b955050604061418d89828a016137eb565b945050606061419e89828a01613821565b93505060806141af89828a01613821565b92505060a087013567ffffffffffffffff8111156141d0576141cf61379d565b5b6141dc89828a01613fca565b9150509295509295509295565b6000602082840312156141ff576141fe613798565b5b600082013567ffffffffffffffff81111561421d5761421c61379d565b5b61422984828501613fca565b91505092915050565b61423b81613925565b811461424657600080fd5b50565b60008135905061425881614232565b92915050565b6000806040838503121561427557614274613798565b5b6000614283858286016137eb565b925050602061429485828601614249565b9150509250929050565b600081519050919050565b600082825260208201905092915050565b6000819050602082019050919050565b600081519050919050565b600082825260208201905092915050565b6000819050602082019050919050565b600082825260208201905092915050565b600061431282613988565b61431c81856142f6565b935061432c8185602086016139a4565b614335816139d7565b840191505092915050565b600061434c8383614307565b905092915050565b6000602082019050919050565b600061436c826142ca565b61437681856142d5565b935083602082028501614388856142e6565b8060005b858110156143c457848403895281516143a58582614340565b94506143b083614354565b925060208a0199505060018101905061438c565b50829750879550505050505092915050565b60006143e28383614361565b905092915050565b6000602082019050919050565b60006144028261429e565b61440c81856142a9565b93508360208202850161441e856142ba565b8060005b8581101561445a578484038952815161443b85826143d6565b9450614446836143ea565b925060208a01995050600181019050614422565b50829750879550505050505092915050565b6000602082019050818103600083015261448681846143f7565b905092915050565b6000806000606084860312156144a7576144a6613798565b5b60006144b586828701613821565b93505060206144c686828701613821565b92505060406144d7868287016137eb565b9150509250925092565b600080604083850312156144f8576144f7613798565b5b6000614506858286016137eb565b9250506020614517858286016137eb565b9150509250929050565b600080600080600060a0868803121561453d5761453c613798565b5b600061454b888289016137eb565b955050602061455c888289016137eb565b945050604061456d88828901613821565b935050606061457e88828901613821565b925050608086013567ffffffffffffffff81111561459f5761459e61379d565b5b6145ab88828901613c3f565b9150509295509295909350565b6000806000606084860312156145d1576145d0613798565b5b60006145df868287016137eb565b93505060206145f086828701613821565b925050604061460186828701613821565b9150509250925092565b614614816140e1565b82525050565b6000606083016000830151614632600086018261460b565b5060208301516146456020860182613ea3565b506040830151848203604086015261465d8282614307565b9150508091505092915050565b60006020820190508181036000830152614684818461461a565b905092915050565b7f455243313135353a2061646472657373207a65726f206973206e6f742061207660008201527f616c6964206f776e657200000000000000000000000000000000000000000000602082015250565b60006146e8602a83613993565b91506146f38261468c565b604082019050919050565b60006020820190508181036000830152614717816146db565b9050919050565b7f4e487b7100000000000000000000000000000000000000000000000000000000600052602260045260246000fd5b6000600282049050600182168061476557607f821691505b6020821081036147785761477761471e565b5b50919050565b7f6f6e6c7920676f727665726e616e63652063616e2063616c6c20746869730000600082015250565b60006147b4601e83613993565b91506147bf8261477e565b602082019050919050565b600060208201905081810360008301526147e3816147a7565b9050919050565b7f455243313135353a2063616c6c6572206973206e6f7420746f6b656e206f776e60008201527f6572206e6f7220617070726f7665640000000000000000000000000000000000602082015250565b6000614846602f83613993565b9150614851826147ea565b604082019050919050565b6000602082019050818103600083015261487581614839565b9050919050565b7f455243313135353a206163636f756e747320616e6420696473206c656e67746860008201527f206d69736d617463680000000000000000000000000000000000000000000000602082015250565b60006148d8602983613993565b91506148e38261487c565b604082019050919050565b60006020820190508181036000830152614907816148cb565b9050919050565b7f4e487b7100000000000000000000000000000000000000000000000000000000600052603260045260246000fd5b7f4e487b7100000000000000000000000000000000000000000000000000000000600052601160045260246000fd5b600061497782613800565b91507fffffffffffffffffffffffffffffffffffffffffffffffffffffffffffffffff82036149a9576149a861493d565b5b600182019050919050565b7f4c6f776572207468616e20737461727420707269636500000000000000000000600082015250565b60006149ea601683613993565b91506149f5826149b4565b602082019050919050565b60006020820190508181036000830152614a19816149dd565b9050919050565b6000614a2b82613800565b9150614a3683613800565b925082821015614a4957614a4861493d565b5b828203905092915050565b7f4c6f776572207468616e2063757272656e744269640000000000000000000000600082015250565b6000614a8a601583613993565b9150614a9582614a54565b602082019050919050565b60006020820190508181036000830152614ab981614a7d565b9050919050565b614ac9816137c2565b82525050565b6000819050919050565b6000614af4614aef614aea846137a2565b614acf565b6137a2565b9050919050565b6000614b0682614ad9565b9050919050565b6000614b1882614afb565b9050919050565b614b2881614b0d565b82525050565b6000819050919050565b6000614b53614b4e614b4984614b2e565b614acf565b613800565b9050919050565b614b6381614b38565b82525050565b600082825260208201905092915050565b50565b6000614b8a600083614b69565b9150614b9582614b7a565b600082019050919050565b600060a082019050614bb56000830187614ac0565b614bc26020830186614b1f565b614bcf6040830185614b5a565b614bdc6060830184613876565b8181036080830152614bed81614b7d565b905095945050505050565b600060a082019050614c0d6000830187614b1f565b614c1a6020830186614b1f565b614c276040830185614b5a565b614c346060830184613876565b8181036080830152614c4581614b7d565b905095945050505050565b60008190508160005260206000209050919050565b60006020601f8301049050919050565b600082821b905092915050565b600060088302614cb27fffffffffffffffffffffffffffffffffffffffffffffffffffffffffffffffff82614c75565b614cbc8683614c75565b95508019841693508086168417925050509392505050565b6000614cef614cea614ce584613800565b614acf565b613800565b9050919050565b6000819050919050565b614d0983614cd4565b614d1d614d1582614cf6565b848454614c82565b825550505050565b600090565b614d32614d25565b614d3d818484614d00565b505050565b5b81811015614d6157614d56600082614d2a565b600181019050614d43565b5050565b601f821115614da657614d7781614c50565b614d8084614c65565b81016020851015614d8f578190505b614da3614d9b85614c65565b830182614d42565b50505b505050565b600082821c905092915050565b6000614dc960001984600802614dab565b1980831691505092915050565b6000614de28383614db8565b9150826002028217905092915050565b614dfb82613988565b67ffffffffffffffff811115614e1457614e13613a75565b5b614e1e825461474d565b614e29828285614d65565b600060209050601f831160018114614e5c5760008415614e4a578287015190505b614e548582614dd6565b865550614ebc565b601f198416614e6a86614c50565b60005b82811015614e9257848901518255600182019150602085019450602081019050614e6d565b86831015614eaf5784890151614eab601f891682614db8565b8355505b6001600288020188555050505b505050505050565b600060a082019050614ed96000830187614b1f565b614ee66020830186614ac0565b614ef36040830185614b5a565b614f006060830184613876565b8181036080830152614f1181614b7d565b905095945050505050565b600060a082019050614f316000830187614ac0565b614f3e6020830186614b1f565b614f4b6040830185613876565b614f586060830184613876565b8181036080830152614f6981614b7d565b905095945050505050565b600081905092915050565b60008154614f8c8161474d565b614f968186614f74565b94506001821660008114614fb15760018114614fc657614ff9565b60ff1983168652811515820286019350614ff9565b614fcf85614c50565b60005b83811015614ff157815481890152600182019150602081019050614fd2565b838801955050505b50505092915050565b600061500d82613988565b6150178185614f74565b93506150278185602086016139a4565b80840191505092915050565b600061503f8285614f7f565b915061504b8284615002565b91508190509392505050565b60006150638285615002565b915061506f8284614f7f565b91508190509392505050565b60006040820190506150906000830185614ac0565b61509d6020830184613931565b9392505050565b600060a0820190506150b96000830187614b1f565b6150c66020830186614ac0565b6150d36040830185613876565b6150e06060830184613876565b81810360808301526150f181614b7d565b905095945050505050565b60006040820190506151116000830185614ac0565b61511e6020830184614ac0565b9392505050565b60008151905061513481614232565b92915050565b6000602082840312156151505761514f613798565b5b600061515e84828501615125565b91505092915050565b7f455243313135353a2069647320616e6420616d6f756e7473206c656e6774682060008201527f6d69736d61746368000000000000000000000000000000000000000000000000602082015250565b60006151c3602883613993565b91506151ce82615167565b604082019050919050565b600060208201905081810360008301526151f2816151b6565b9050919050565b7f455243313135353a207472616e7366657220746f20746865207a65726f20616460008201527f6472657373000000000000000000000000000000000000000000000000000000602082015250565b6000615255602583613993565b9150615260826151f9565b604082019050919050565b6000602082019050818103600083015261528481615248565b9050919050565b7f455243313135353a20696e73756666696369656e742062616c616e636520666f60008201527f72207472616e7366657200000000000000000000000000000000000000000000602082015250565b60006152e7602a83613993565b91506152f28261528b565b604082019050919050565b60006020820190508181036000830152615316816152da565b9050919050565b600061532882613800565b915061533383613800565b9250827fffffffffffffffffffffffffffffffffffffffffffffffffffffffffffffffff038211156153685761536761493d565b5b828201905092915050565b6000604082019050818103600083015261538d8185613ed7565b905081810360208301526153a18184613ed7565b90509392505050565b7f455243313135353a206d696e7420746f20746865207a65726f2061646472657360008201527f7300000000000000000000000000000000000000000000000000000000000000602082015250565b6000615406602183613993565b9150615411826153aa565b604082019050919050565b60006020820190508181036000830152615435816153f9565b9050919050565b60006040820190506154516000830185613876565b61545e6020830184613876565b9392505050565b7f455243313135353a2073657474696e6720617070726f76616c2073746174757360008201527f20666f722073656c660000000000000000000000000000000000000000000000602082015250565b60006154c1602983613993565b91506154cc82615465565b604082019050919050565b600060208201905081810360008301526154f0816154b4565b9050919050565b7f455243313135353a206275726e2066726f6d20746865207a65726f206164647260008201527f6573730000000000000000000000000000000000000000000000000000000000602082015250565b6000615553602383613993565b915061555e826154f7565b604082019050919050565b6000602082019050818103600083015261558281615546565b9050919050565b7f455243313135353a206275726e20616d6f756e7420657863656564732062616c60008201527f616e636500000000000000000000000000000000000000000000000000000000602082015250565b60006155e5602483613993565b91506155f082615589565b604082019050919050565b60006020820190508181036000830152615614816155d8565b9050919050565b600081519050919050565b60006156318261561b565b61563b8185614b69565b935061564b8185602086016139a4565b615654816139d7565b840191505092915050565b600060a0820190506156746000830188614ac0565b6156816020830187614ac0565b81810360408301526156938186613ed7565b905081810360608301526156a78185613ed7565b905081810360808301526156bb8184615626565b90509695505050505050565b6000815190506156d6816138cc565b92915050565b6000602082840312156156f2576156f1613798565b5b6000615700848285016156c7565b91505092915050565b60008160e01c9050919050565b600060033d11156157355760046000803e615732600051615709565b90505b90565b600060443d106157c55761574a61378e565b60043d036004823e80513d602482011167ffffffffffffffff821117156157725750506157c5565b808201805167ffffffffffffffff81111561579057505050506157c5565b80602083010160043d0385018111156157ad5750505050506157c5565b6157bc82602001850186613aa4565b82955050505050505b90565b7f455243313135353a207472616e7366657220746f206e6f6e204552433131353560008201527f526563656976657220696d706c656d656e746572000000000000000000000000602082015250565b6000615824603483613993565b915061582f826157c8565b604082019050919050565b6000602082019050818103600083015261585381615817565b9050919050565b7f455243313135353a204552433131353552656365697665722072656a6563746560008201527f6420746f6b656e73000000000000000000000000000000000000000000000000602082015250565b60006158b6602883613993565b91506158c18261585a565b604082019050919050565b600060208201905081810360008301526158e5816158a9565b9050919050565b600060a0820190506159016000830188614ac0565b61590e6020830187614ac0565b61591b6040830186613876565b6159286060830185613876565b818103608083015261593a8184615626565b9050969550505050505056fea2646970667358221220bdc3dd3f50f63f929a78808bda55b515d7b677337a86ee0c34fc2710030becd664736f6c634300080f0033",
  "immutableReferences": {},
  "source": "// SPDX-License-Identifier: MIT\r\n\r\npragma solidity >=0.5.16;\r\n\r\nimport \"./Supply.sol\";\r\nimport \"./Item.sol\";\r\n\r\ncontract AuctionContract is ERC1155 {\r\n\r\n    ItemContract itemToken;\r\n\r\n    SupplyContract supplyContract;\r\n\r\n    uint256 internal auctionId;\r\n\r\n    address payable internal governance;\r\n\r\n    string[2] baseURI = [\"https://ipfs.io/ipfs/\", \"/{id}.json\"];\r\n\r\n    mapping(uint256 => string) uriMap; // items length => dirCID;\r\n    mapping(uint256 => Bid[] ) public auctionBids;\r\n    mapping(address => mapping(uint256 => string[][])) pathMap; // map[buyer][itemId] = history[];\r\n\r\n\r\n\r\n\r\n    constructor(address _itemToken, address _supplyContract, string memory _dirCID) public ERC1155(string.concat(string.concat(baseURI[0], _dirCID),baseURI[1]))\r\n    {\r\n        auctionId = 0;\r\n        itemToken = ItemContract(_itemToken);\r\n        supplyContract = SupplyContract(_supplyContract);\r\n        governance = payable(msg.sender);\r\n    }\r\n\r\n \r\n    \r\n    struct Bid{\r\n        address payable from;\r\n        uint256 amount;\r\n        string shippingTo;\r\n    }\r\n\r\n\r\n    modifier onlySeller(uint256 _auctionId) {\r\n        require(balanceOf(msg.sender, _auctionId) == 1);\r\n        _;\r\n    }\r\n\r\n    modifier onlyGovernance(){\r\n        require(msg.sender == governance, \"only gorvernance can call this\");\r\n        _;\r\n    }\r\n\r\n    function getAuctionId() public view returns(uint256){\r\n        return auctionId;\r\n    }\r\n\r\n    function getBidsCount(uint256 _auctionId) public view returns(uint256){\r\n        return auctionBids[_auctionId].length;\r\n    }\r\n    \r\n    function getCurrentBid(uint _auctionId) public view returns(uint256) {\r\n        uint bidsLength =auctionBids[_auctionId].length;\r\n\r\n        if(bidsLength > 0){\r\n            Bid memory lastBid = auctionBids[_auctionId][bidsLength - 1];\r\n            return (lastBid.amount);\r\n        }\r\n\r\n        return (uint256(0));\r\n    }\r\n\r\n    function createAuction(string memory _dirCID) public {\r\n        auctionId++;\r\n        string memory newURI = string.concat(string.concat(baseURI[0], _dirCID), baseURI[1]);\r\n        uriMap[auctionId] = newURI;\r\n        _setURI(newURI);\r\n        _mint(governance, auctionId, 1, \"\");\r\n    }\r\n\r\n    //function restartAuction(uint256 _auctionId, )\r\n\r\n    function cancelAuction(uint256 _auctionId, uint256 _itemId, address _seller) public onlySeller(_auctionId){\r\n        uint256 bidsLength = auctionBids[_auctionId].length;\r\n\r\n        if(bidsLength > 0){\r\n            Bid memory lastBid = auctionBids[_auctionId][bidsLength -1];\r\n            itemToken.safeTransferFrom(governance, lastBid.from, 0, lastBid.amount, \"\");\r\n            itemToken.safeTransferFrom(governance, _seller, _itemId, lastBid.amount, \"\");\r\n            burn(governance, _auctionId, 1);\r\n        }\r\n    }\r\n\r\n    function finalizeAuction(uint256 _auctionId, uint256 _itemId, address _seller, uint256 _amount, uint256 _blockDeadline, string memory _shippingFrom) public onlySeller(_auctionId) {\r\n        uint256 bidsLength = auctionBids[_auctionId].length;\r\n        uint256 timeStamp = block.timestamp;\r\n        //address payable aucOwner = ownerDataContract.getOwnerByAucId(_auctionId);\r\n        \r\n\r\n        if(timeStamp < _blockDeadline){\r\n            revert();\r\n        }\r\n        \r\n        if(bidsLength == 0) {\r\n            cancelAuction(_auctionId, _itemId, _seller);\r\n        }else{\r\n\r\n            Bid memory lastBid = auctionBids[_auctionId][bidsLength - 1];\r\n\r\n            itemToken.safeTransferFrom(governance, msg.sender, 0, lastBid.amount, \"\");\r\n            itemToken.safeTransferFrom(msg.sender, lastBid.from, _itemId, _amount, \"\");\r\n            safeTransferFrom(governance, lastBid.from, _auctionId, 1, \"\");\r\n\r\n            updateMap(_auctionId, _itemId, _seller, lastBid.from, _shippingFrom, lastBid.shippingTo);\r\n            supplyContract.deliveryPrepareByItemId(_auctionId);\r\n        }\r\n    }\r\n\r\n    function bidOnAuction(uint _auctionId, string memory _to, uint _amount, uint256 _startPrice, uint256 _startTime, uint256 _blockDeadline) external payable {\r\n        uint256 timestamp = block.timestamp;\r\n        uint256 startTime = _startTime;\r\n        uint256 deadline = _blockDeadline;\r\n/*\r\n        if(aucOwner == msg.sender){\r\n            revert();\r\n        }\r\n*/\r\n        if( (timestamp > deadline) || (timestamp < startTime) ){\r\n            revert();\r\n        }\r\n        \r\n        uint256 bidsLength = auctionBids[_auctionId].length;\r\n        uint256 tempAmount = _startPrice;\r\n        Bid memory lastBid;\r\n        \r\n        if(_amount < tempAmount){\r\n            revert();\r\n        }\r\n\r\n        require(_amount > tempAmount, \"Lower than start price\");\r\n\r\n        if(bidsLength > 0){\r\n            lastBid = auctionBids[_auctionId][bidsLength -1];\r\n            tempAmount = lastBid.amount;\r\n\r\n            require(_amount > tempAmount, \"Lower than currentBid\");\r\n\r\n            itemToken.safeTransferFrom(msg.sender, governance, 0, _amount, \"\");\r\n            itemToken.safeTransferFrom(governance, lastBid.from, 0, lastBid.amount, \"\");\r\n        }\r\n        \r\n        Bid memory newBid;\r\n        newBid.from = payable(msg.sender);\r\n        newBid.amount = _amount;\r\n        newBid.shippingTo = _to;\r\n        auctionBids[_auctionId].push(newBid);\r\n    }\r\n\r\n    function getWinningPrice(uint256 _auctionId) public view returns(uint256){\r\n        uint256 len = auctionBids[_auctionId].length;\r\n        return auctionBids[_auctionId][len-1].amount;\r\n    } //    \r\n\r\n    function getBidderInfo(uint256 _auctionId) public view returns(Bid memory){\r\n        Bid[] memory BidArr = auctionBids[_auctionId];\r\n        return auctionBids[_auctionId][BidArr.length];\r\n    }\r\n\r\n    function burn(address _from, uint256 _id, uint256 _amount) public {\r\n        _burn(_from, _id, _amount);\r\n    }\r\n/*\r\n    function updateMap(uint256 _auctionId) internal {\r\n        Auction memory auc = auctions[_auctionId];\r\n        uint256 _itemId = auc.itemId;\r\n\r\n        uint256[] memory newRecord;\r\n        uint256[][] memory prevMap = aucMap[auc.traders[0]][_itemId];\r\n        uint256[][] memory nextMap = aucMap[auc.traders[1]][_itemId];\r\n            \r\n        if(prevMap.length == 0){\r\n            newRecord[0] = _auctionId;\r\n            nextMap[nextMap.length] = newRecord;\r\n        }\r\n\r\n        for(uint256 i=0;i<prevMap.length;i++){\r\n            newRecord = prevMap[i];\r\n            newRecord[newRecord.length] = _auctionId;\r\n            nextMap[nextMap.length] = newRecord; \r\n        }\r\n\r\n        aucMap[auc.traders[1]][_itemId] = nextMap;\r\n    }\r\n\r\n    function getPathByItemId(uint256 _itemId) public view returns(string[][] memory){\r\n        string[][] memory pathArr;\r\n        for(uint i=0;i<aucMap[msg.sender][_itemId].length; i++){\r\n            string[] memory path;\r\n            uint256[] memory row = aucMap[msg.sender][_itemId][i];\r\n            for(uint j=0;j<row.length;j++){\r\n                path[path.length] = auctions[row[j]].shippingAddr[0];\r\n                path[path.length] = auctions[row[j]].shippingAddr[1];\r\n            }\r\n            pathArr[pathArr.length] = path;\r\n        }\r\n\r\n        return pathArr;\r\n    }\r\n*/  \r\n    function updateMap(uint256 _auctionId, uint256 _itemId, address _seller, address _buyer, string memory _shippingFrom, string memory _shippingTo) internal {\r\n\r\n        string[] memory newRecord;\r\n        string[][] memory prevMap = pathMap[_seller][_itemId];\r\n        string[][] memory nextMap = pathMap[_buyer][_itemId];\r\n            \r\n        if(prevMap.length == 0){\r\n            newRecord[0] = _shippingFrom;\r\n            newRecord[1] = _shippingTo;\r\n            nextMap[nextMap.length] = newRecord;\r\n        }\r\n\r\n        for(uint256 i=0;i<prevMap.length;i++){\r\n            newRecord = prevMap[i];\r\n            newRecord[newRecord.length] = _shippingFrom;\r\n            newRecord[newRecord.length] = _shippingFrom;\r\n\r\n            nextMap[nextMap.length] = newRecord; \r\n        }\r\n\r\n        pathMap[_buyer][_itemId] = nextMap;\r\n    }\r\n\r\n    function getPathByItemId(uint256 _itemId) public view returns(string[][] memory){\r\n        return pathMap[msg.sender][_itemId];\r\n    }\r\n\r\n    function setApprovalForAll(address _user, bool flag) public override{\r\n        address from = _user;\r\n        address to = governance;\r\n        if(_user != governance){\r\n            _setApprovalForAll(from, to, flag);\r\n            itemToken.setApprovalForAll(from, flag);\r\n        }\r\n    }\r\n\r\n    function isApprovedForAll(address _user, address _contract) public view override returns(bool){\r\n        address from = _user;\r\n        address to = governance;\r\n\r\n        if(_user == governance){\r\n            to = _contract;\r\n        }\r\n\r\n        return (super.isApprovedForAll(from,to) && itemToken.isApprovedForAll(from, to));    \r\n    }\r\n\r\n    function setUserToGovernance(address _user) public onlyGovernance(){\r\n        governance = payable(_user);\r\n    }\r\n\r\n}\r\n\r\n",
  "sourcePath": "/Users/c_rbi/testNet/PNU-milknmeat_test/back-end/smart_contract/contracts/Auction.sol",
  "compiler": {
    "name": "solc",
    "version": "0.8.15+commit.e14f2714.Emscripten.clang"
  },
  "schemaVersion": "3.4.10",
  "updatedAt": "2022-09-29T10:04:45.804Z",
  "networkType": "ethereum",
  "devdoc": {
    "kind": "dev",
    "methods": {
      "balanceOf(address,uint256)": {
        "details": "See {IERC1155-balanceOf}. Requirements: - `account` cannot be the zero address."
      },
      "balanceOfBatch(address[],uint256[])": {
        "details": "See {IERC1155-balanceOfBatch}. Requirements: - `accounts` and `ids` must have the same length."
      },
      "safeBatchTransferFrom(address,address,uint256[],uint256[],bytes)": {
        "details": "See {IERC1155-safeBatchTransferFrom}."
      },
      "safeTransferFrom(address,address,uint256,uint256,bytes)": {
        "details": "See {IERC1155-safeTransferFrom}."
      },
      "supportsInterface(bytes4)": {
        "details": "See {IERC165-supportsInterface}."
      },
      "uri(uint256)": {
        "details": "See {IERC1155MetadataURI-uri}. This implementation returns the same URI for *all* token types. It relies on the token type ID substitution mechanism https://eips.ethereum.org/EIPS/eip-1155#metadata[defined in the EIP]. Clients calling this function must replace the `\\{id\\}` substring with the actual token type ID."
      }
    },
    "version": 1
  },
  "userdoc": {
    "kind": "user",
    "methods": {},
    "version": 1
  }
}