{
  "contractName": "ItemContract",
  "abi": [
    {
      "inputs": [
        {
          "internalType": "string",
          "name": "_dirCID",
          "type": "string"
        }
      ],
      "stateMutability": "nonpayable",
      "type": "constructor"
    },
    {
      "anonymous": false,
      "inputs": [
        {
          "indexed": true,
          "internalType": "address",
          "name": "account",
          "type": "address"
        },
        {
          "indexed": true,
          "internalType": "address",
          "name": "operator",
          "type": "address"
        },
        {
          "indexed": false,
          "internalType": "bool",
          "name": "approved",
          "type": "bool"
        }
      ],
      "name": "ApprovalForAll",
      "type": "event"
    },
    {
      "anonymous": false,
      "inputs": [
        {
          "indexed": true,
          "internalType": "address",
          "name": "operator",
          "type": "address"
        },
        {
          "indexed": true,
          "internalType": "address",
          "name": "from",
          "type": "address"
        },
        {
          "indexed": true,
          "internalType": "address",
          "name": "to",
          "type": "address"
        },
        {
          "indexed": false,
          "internalType": "uint256[]",
          "name": "ids",
          "type": "uint256[]"
        },
        {
          "indexed": false,
          "internalType": "uint256[]",
          "name": "values",
          "type": "uint256[]"
        }
      ],
      "name": "TransferBatch",
      "type": "event"
    },
    {
      "anonymous": false,
      "inputs": [
        {
          "indexed": true,
          "internalType": "address",
          "name": "operator",
          "type": "address"
        },
        {
          "indexed": true,
          "internalType": "address",
          "name": "from",
          "type": "address"
        },
        {
          "indexed": true,
          "internalType": "address",
          "name": "to",
          "type": "address"
        },
        {
          "indexed": false,
          "internalType": "uint256",
          "name": "id",
          "type": "uint256"
        },
        {
          "indexed": false,
          "internalType": "uint256",
          "name": "value",
          "type": "uint256"
        }
      ],
      "name": "TransferSingle",
      "type": "event"
    },
    {
      "anonymous": false,
      "inputs": [
        {
          "indexed": false,
          "internalType": "string",
          "name": "value",
          "type": "string"
        },
        {
          "indexed": true,
          "internalType": "uint256",
          "name": "id",
          "type": "uint256"
        }
      ],
      "name": "URI",
      "type": "event"
    },
    {
      "inputs": [
        {
          "internalType": "address",
          "name": "account",
          "type": "address"
        },
        {
          "internalType": "uint256",
          "name": "id",
          "type": "uint256"
        }
      ],
      "name": "balanceOf",
      "outputs": [
        {
          "internalType": "uint256",
          "name": "",
          "type": "uint256"
        }
      ],
      "stateMutability": "view",
      "type": "function",
      "constant": true
    },
    {
      "inputs": [
        {
          "internalType": "address[]",
          "name": "accounts",
          "type": "address[]"
        },
        {
          "internalType": "uint256[]",
          "name": "ids",
          "type": "uint256[]"
        }
      ],
      "name": "balanceOfBatch",
      "outputs": [
        {
          "internalType": "uint256[]",
          "name": "",
          "type": "uint256[]"
        }
      ],
      "stateMutability": "view",
      "type": "function",
      "constant": true
    },
    {
      "inputs": [
        {
          "internalType": "address",
          "name": "",
          "type": "address"
        }
      ],
      "name": "isManager",
      "outputs": [
        {
          "internalType": "bool",
          "name": "",
          "type": "bool"
        }
      ],
      "stateMutability": "view",
      "type": "function",
      "constant": true
    },
    {
      "inputs": [
        {
          "internalType": "address",
          "name": "",
          "type": "address"
        }
      ],
      "name": "isProducer",
      "outputs": [
        {
          "internalType": "bool",
          "name": "",
          "type": "bool"
        }
      ],
      "stateMutability": "view",
      "type": "function",
      "constant": true
    },
    {
      "inputs": [
        {
          "internalType": "address",
          "name": "",
          "type": "address"
        },
        {
          "internalType": "uint256",
          "name": "",
          "type": "uint256"
        }
      ],
      "name": "mintList",
      "outputs": [
        {
          "internalType": "uint256",
          "name": "",
          "type": "uint256"
        }
      ],
      "stateMutability": "view",
      "type": "function",
      "constant": true
    },
    {
      "inputs": [
        {
          "internalType": "uint256",
          "name": "",
          "type": "uint256"
        }
      ],
      "name": "producerOf",
      "outputs": [
        {
          "internalType": "address",
          "name": "",
          "type": "address"
        }
      ],
      "stateMutability": "view",
      "type": "function",
      "constant": true
    },
    {
      "inputs": [
        {
          "internalType": "address",
          "name": "from",
          "type": "address"
        },
        {
          "internalType": "address",
          "name": "to",
          "type": "address"
        },
        {
          "internalType": "uint256[]",
          "name": "ids",
          "type": "uint256[]"
        },
        {
          "internalType": "uint256[]",
          "name": "amounts",
          "type": "uint256[]"
        },
        {
          "internalType": "bytes",
          "name": "data",
          "type": "bytes"
        }
      ],
      "name": "safeBatchTransferFrom",
      "outputs": [],
      "stateMutability": "nonpayable",
      "type": "function"
    },
    {
      "inputs": [
        {
          "internalType": "address",
          "name": "from",
          "type": "address"
        },
        {
          "internalType": "address",
          "name": "to",
          "type": "address"
        },
        {
          "internalType": "uint256",
          "name": "id",
          "type": "uint256"
        },
        {
          "internalType": "uint256",
          "name": "amount",
          "type": "uint256"
        },
        {
          "internalType": "bytes",
          "name": "data",
          "type": "bytes"
        }
      ],
      "name": "safeTransferFrom",
      "outputs": [],
      "stateMutability": "nonpayable",
      "type": "function"
    },
    {
      "inputs": [
        {
          "internalType": "bytes4",
          "name": "interfaceId",
          "type": "bytes4"
        }
      ],
      "name": "supportsInterface",
      "outputs": [
        {
          "internalType": "bool",
          "name": "",
          "type": "bool"
        }
      ],
      "stateMutability": "view",
      "type": "function",
      "constant": true
    },
    {
      "inputs": [
        {
          "internalType": "uint256",
          "name": "",
          "type": "uint256"
        }
      ],
      "name": "uri",
      "outputs": [
        {
          "internalType": "string",
          "name": "",
          "type": "string"
        }
      ],
      "stateMutability": "view",
      "type": "function",
      "constant": true
    },
    {
      "inputs": [
        {
          "internalType": "uint256",
          "name": "_itemId",
          "type": "uint256"
        }
      ],
      "name": "getProducerOf",
      "outputs": [
        {
          "internalType": "address",
          "name": "",
          "type": "address"
        }
      ],
      "stateMutability": "view",
      "type": "function",
      "constant": true
    },
    {
      "inputs": [
        {
          "internalType": "address",
          "name": "_user",
          "type": "address"
        }
      ],
      "name": "getIsProducer",
      "outputs": [
        {
          "internalType": "bool",
          "name": "",
          "type": "bool"
        }
      ],
      "stateMutability": "view",
      "type": "function",
      "constant": true
    },
    {
      "inputs": [],
      "name": "getGovernance",
      "outputs": [
        {
          "internalType": "address payable",
          "name": "",
          "type": "address"
        }
      ],
      "stateMutability": "view",
      "type": "function",
      "constant": true
    },
    {
      "inputs": [
        {
          "internalType": "uint256",
          "name": "_amount",
          "type": "uint256"
        }
      ],
      "name": "WeitoMMT",
      "outputs": [],
      "stateMutability": "payable",
      "type": "function",
      "payable": true
    },
    {
      "inputs": [
        {
          "internalType": "uint256",
          "name": "amount",
          "type": "uint256"
        }
      ],
      "name": "MMTtoWei",
      "outputs": [],
      "stateMutability": "payable",
      "type": "function",
      "payable": true
    },
    {
      "inputs": [
        {
          "internalType": "uint256",
          "name": "_amount",
          "type": "uint256"
        }
      ],
      "name": "mintMMT",
      "outputs": [],
      "stateMutability": "nonpayable",
      "type": "function"
    },
    {
      "inputs": [
        {
          "internalType": "uint256",
          "name": "_stock",
          "type": "uint256"
        },
        {
          "internalType": "uint256",
          "name": "_itemId",
          "type": "uint256"
        }
      ],
      "name": "mintItemByItemId",
      "outputs": [],
      "stateMutability": "nonpayable",
      "type": "function"
    },
    {
      "inputs": [],
      "name": "getNewItemId",
      "outputs": [
        {
          "internalType": "uint256",
          "name": "",
          "type": "uint256"
        }
      ],
      "stateMutability": "view",
      "type": "function",
      "constant": true
    },
    {
      "inputs": [
        {
          "internalType": "uint256",
          "name": "_amount",
          "type": "uint256"
        },
        {
          "internalType": "string",
          "name": "_dirCID",
          "type": "string"
        }
      ],
      "name": "createItem",
      "outputs": [],
      "stateMutability": "nonpayable",
      "type": "function"
    },
    {
      "inputs": [],
      "name": "getURILatest",
      "outputs": [
        {
          "internalType": "string",
          "name": "",
          "type": "string"
        }
      ],
      "stateMutability": "view",
      "type": "function",
      "constant": true
    },
    {
      "inputs": [
        {
          "internalType": "address",
          "name": "_user",
          "type": "address"
        },
        {
          "internalType": "bool",
          "name": "flag",
          "type": "bool"
        }
      ],
      "name": "setApprovalForAll",
      "outputs": [],
      "stateMutability": "nonpayable",
      "type": "function"
    },
    {
      "inputs": [
        {
          "internalType": "uint256",
          "name": "_itemId",
          "type": "uint256"
        },
        {
          "internalType": "uint256",
          "name": "_amount",
          "type": "uint256"
        }
      ],
      "name": "burn",
      "outputs": [],
      "stateMutability": "nonpayable",
      "type": "function"
    },
    {
      "inputs": [
        {
          "internalType": "address",
          "name": "_user",
          "type": "address"
        },
        {
          "internalType": "address",
          "name": "_contract",
          "type": "address"
        }
      ],
      "name": "isApprovedForAll",
      "outputs": [
        {
          "internalType": "bool",
          "name": "",
          "type": "bool"
        }
      ],
      "stateMutability": "view",
      "type": "function",
      "constant": true
    },
    {
      "inputs": [
        {
          "internalType": "address",
          "name": "_user",
          "type": "address"
        }
      ],
      "name": "setUserToGovernance",
      "outputs": [],
      "stateMutability": "nonpayable",
      "type": "function"
    },
    {
      "inputs": [
        {
          "internalType": "address",
          "name": "_user",
          "type": "address"
        },
        {
          "internalType": "bool",
          "name": "flag",
          "type": "bool"
        }
      ],
      "name": "setUserToProducer",
      "outputs": [],
      "stateMutability": "nonpayable",
      "type": "function"
    },
    {
      "inputs": [
        {
          "internalType": "address",
          "name": "_user",
          "type": "address"
        },
        {
          "internalType": "bool",
          "name": "flag",
          "type": "bool"
        }
      ],
      "name": "setUserToManager",
      "outputs": [],
      "stateMutability": "nonpayable",
      "type": "function"
    }
  ],
  "bytecode": "0x608060405260405180604001604052806040518060400160405280601581526020017f68747470733a2f2f697066732e696f2f697066732f000000000000000000000081525081526020016040518060400160405280600a81526020017f2f7b69647d2e6a736f6e0000000000000000000000000000000000000000000081525081525060059060026200009592919062000844565b50348015620000a357600080fd5b5060405162005a3938038062005a398339818101604052810190620000c9919062000ac1565b6005600060028110620000e157620000e062000b12565b5b0181604051602001620000f692919062000c96565b60405160208183030381529060405260056001600281106200011d576200011c62000b12565b5b016040516020016200013192919062000cbe565b60405160208183030381529060405262000151816200039360201b60201c565b50600060038190555033600460006101000a81548173ffffffffffffffffffffffffffffffffffffffff021916908373ffffffffffffffffffffffffffffffffffffffff160217905550600160096000600460009054906101000a900473ffffffffffffffffffffffffffffffffffffffff1673ffffffffffffffffffffffffffffffffffffffff1673ffffffffffffffffffffffffffffffffffffffff16815260200190815260200160002060006101000a81548160ff0219169083151502179055506001600a6000600460009054906101000a900473ffffffffffffffffffffffffffffffffffffffff1673ffffffffffffffffffffffffffffffffffffffff1673ffffffffffffffffffffffffffffffffffffffff16815260200190815260200160002060006101000a81548160ff021916908315150217905550620002de600460009054906101000a900473ffffffffffffffffffffffffffffffffffffffff16600354670de0b6b3a764000060405180602001604052806000815250620003a860201b60201c565b600b6000600460009054906101000a900473ffffffffffffffffffffffffffffffffffffffff1673ffffffffffffffffffffffffffffffffffffffff1673ffffffffffffffffffffffffffffffffffffffff168152602001908152602001600020600090806001815401808255809150506001900390600052602060002001600090919091909150558060076000600354815260200190815260200160002090816200038b919062000ead565b5050620014fe565b8060029081620003a4919062000ead565b5050565b600073ffffffffffffffffffffffffffffffffffffffff168473ffffffffffffffffffffffffffffffffffffffff16036200041a576040517f08c379a000000000000000000000000000000000000000000000000000000000815260040162000411906200101b565b60405180910390fd5b60006200042c6200058f60201b60201c565b9050600062000441856200059760201b60201c565b9050600062000456856200059760201b60201c565b90506200046f836000898585896200061860201b60201c565b8460008088815260200190815260200160002060008973ffffffffffffffffffffffffffffffffffffffff1673ffffffffffffffffffffffffffffffffffffffff1681526020019081526020016000206000828254620004d091906200106c565b925050819055508673ffffffffffffffffffffffffffffffffffffffff16600073ffffffffffffffffffffffffffffffffffffffff168473ffffffffffffffffffffffffffffffffffffffff167fc3d58168c5ae7397731d063d5bbf3d657854427343f4c083240f7aacaa2d0f62898960405162000550929190620010da565b60405180910390a46200056f836000898585896200062060201b60201c565b62000586836000898989896200062860201b60201c565b50505050505050565b600033905090565b60606000600167ffffffffffffffff811115620005b957620005b862000953565b5b604051908082528060200260200182016040528015620005e85781602001602082028036833780820191505090505b509050828160008151811062000603576200060262000b12565b5b60200260200101818152505080915050919050565b505050505050565b505050505050565b620006548473ffffffffffffffffffffffffffffffffffffffff166200082160201b6200178b1760201c565b1562000819578373ffffffffffffffffffffffffffffffffffffffff1663f23a6e6187878686866040518663ffffffff1660e01b81526004016200069d959493929190620011a9565b6020604051808303816000875af1925050508015620006dc57506040513d601f19601f82011682018060405250810190620006d991906200126a565b60015b6200078d57620006eb620012a9565b806308c379a0036200074e575062000702620012ce565b806200070f575062000750565b806040517f08c379a0000000000000000000000000000000000000000000000000000000008152600401620007459190620013aa565b60405180910390fd5b505b6040517f08c379a0000000000000000000000000000000000000000000000000000000008152600401620007849062001444565b60405180910390fd5b63f23a6e6160e01b7bffffffffffffffffffffffffffffffffffffffffffffffffffffffff1916817bffffffffffffffffffffffffffffffffffffffffffffffffffffffff19161462000817576040517f08c379a00000000000000000000000000000000000000000000000000000000081526004016200080e90620014dc565b60405180910390fd5b505b505050505050565b6000808273ffffffffffffffffffffffffffffffffffffffff163b119050919050565b826002810192821562000884579160200282015b828111156200088357825182908162000872919062000ead565b509160200191906001019062000858565b5b50905062000893919062000897565b5090565b5b80821115620008bb5760008181620008b19190620008bf565b5060010162000898565b5090565b508054620008cd9062000b70565b6000825580601f10620008e1575062000902565b601f01602090049060005260206000209081019062000901919062000905565b5b50565b5b808211156200092057600081600090555060010162000906565b5090565b6000604051905090565b600080fd5b600080fd5b600080fd5b600080fd5b6000601f19601f8301169050919050565b7f4e487b7100000000000000000000000000000000000000000000000000000000600052604160045260246000fd5b6200098d8262000942565b810181811067ffffffffffffffff82111715620009af57620009ae62000953565b5b80604052505050565b6000620009c462000924565b9050620009d2828262000982565b919050565b600067ffffffffffffffff821115620009f557620009f462000953565b5b62000a008262000942565b9050602081019050919050565b60005b8381101562000a2d57808201518184015260208101905062000a10565b8381111562000a3d576000848401525b50505050565b600062000a5a62000a5484620009d7565b620009b8565b90508281526020810184848401111562000a795762000a786200093d565b5b62000a8684828562000a0d565b509392505050565b600082601f83011262000aa65762000aa562000938565b5b815162000ab884826020860162000a43565b91505092915050565b60006020828403121562000ada5762000ad96200092e565b5b600082015167ffffffffffffffff81111562000afb5762000afa62000933565b5b62000b098482850162000a8e565b91505092915050565b7f4e487b7100000000000000000000000000000000000000000000000000000000600052603260045260246000fd5b7f4e487b7100000000000000000000000000000000000000000000000000000000600052602260045260246000fd5b6000600282049050600182168062000b8957607f821691505b60208210810362000b9f5762000b9e62000b41565b5b50919050565b600081905092915050565b60008190508160005260206000209050919050565b6000815462000bd48162000b70565b62000be0818662000ba5565b9450600182166000811462000bfe576001811462000c145762000c4b565b60ff198316865281151582028601935062000c4b565b62000c1f8562000bb0565b60005b8381101562000c435781548189015260018201915060208101905062000c22565b838801955050505b50505092915050565b600081519050919050565b600062000c6c8262000c54565b62000c78818562000ba5565b935062000c8a81856020860162000a0d565b80840191505092915050565b600062000ca4828562000bc5565b915062000cb2828462000c5f565b91508190509392505050565b600062000ccc828562000c5f565b915062000cda828462000bc5565b91508190509392505050565b60006020601f8301049050919050565b600082821b905092915050565b60006008830262000d357fffffffffffffffffffffffffffffffffffffffffffffffffffffffffffffffff8262000cf6565b62000d41868362000cf6565b95508019841693508086168417925050509392505050565b6000819050919050565b6000819050919050565b600062000d8e62000d8862000d828462000d59565b62000d63565b62000d59565b9050919050565b6000819050919050565b62000daa8362000d6d565b62000dc262000db98262000d95565b84845462000d03565b825550505050565b600090565b62000dd962000dca565b62000de681848462000d9f565b505050565b5b8181101562000e0e5762000e0260008262000dcf565b60018101905062000dec565b5050565b601f82111562000e5d5762000e278162000bb0565b62000e328462000ce6565b8101602085101562000e42578190505b62000e5a62000e518562000ce6565b83018262000deb565b50505b505050565b600082821c905092915050565b600062000e826000198460080262000e62565b1980831691505092915050565b600062000e9d838362000e6f565b9150826002028217905092915050565b62000eb88262000c54565b67ffffffffffffffff81111562000ed45762000ed362000953565b5b62000ee0825462000b70565b62000eed82828562000e12565b600060209050601f83116001811462000f25576000841562000f10578287015190505b62000f1c858262000e8f565b86555062000f8c565b601f19841662000f358662000bb0565b60005b8281101562000f5f5784890151825560018201915060208501945060208101905062000f38565b8683101562000f7f578489015162000f7b601f89168262000e6f565b8355505b6001600288020188555050505b505050505050565b600082825260208201905092915050565b7f455243313135353a206d696e7420746f20746865207a65726f2061646472657360008201527f7300000000000000000000000000000000000000000000000000000000000000602082015250565b60006200100360218362000f94565b9150620010108262000fa5565b604082019050919050565b60006020820190508181036000830152620010368162000ff4565b9050919050565b7f4e487b7100000000000000000000000000000000000000000000000000000000600052601160045260246000fd5b6000620010798262000d59565b9150620010868362000d59565b9250827fffffffffffffffffffffffffffffffffffffffffffffffffffffffffffffffff03821115620010be57620010bd6200103d565b5b828201905092915050565b620010d48162000d59565b82525050565b6000604082019050620010f16000830185620010c9565b620011006020830184620010c9565b9392505050565b600073ffffffffffffffffffffffffffffffffffffffff82169050919050565b6000620011348262001107565b9050919050565b620011468162001127565b82525050565b600081519050919050565b600082825260208201905092915050565b600062001175826200114c565b62001181818562001157565b93506200119381856020860162000a0d565b6200119e8162000942565b840191505092915050565b600060a082019050620011c060008301886200113b565b620011cf60208301876200113b565b620011de6040830186620010c9565b620011ed6060830185620010c9565b818103608083015262001201818462001168565b90509695505050505050565b60007fffffffff0000000000000000000000000000000000000000000000000000000082169050919050565b62001244816200120d565b81146200125057600080fd5b50565b600081519050620012648162001239565b92915050565b6000602082840312156200128357620012826200092e565b5b6000620012938482850162001253565b91505092915050565b60008160e01c9050919050565b600060033d1115620012cb5760046000803e620012c86000516200129c565b90505b90565b600060443d106200136657620012e362000924565b60043d036004823e80513d602482011167ffffffffffffffff821117156200130d57505062001366565b808201805167ffffffffffffffff8111156200132d575050505062001366565b80602083010160043d0385018111156200134c57505050505062001366565b6200135d8260200185018662000982565b82955050505050505b90565b6000620013768262000c54565b62001382818562000f94565b93506200139481856020860162000a0d565b6200139f8162000942565b840191505092915050565b60006020820190508181036000830152620013c6818462001369565b905092915050565b7f455243313135353a207472616e7366657220746f206e6f6e204552433131353560008201527f526563656976657220696d706c656d656e746572000000000000000000000000602082015250565b60006200142c60348362000f94565b91506200143982620013ce565b604082019050919050565b600060208201905081810360008301526200145f816200141d565b9050919050565b7f455243313135353a204552433131353552656365697665722072656a6563746560008201527f6420746f6b656e73000000000000000000000000000000000000000000000000602082015250565b6000620014c460288362000f94565b9150620014d18262001466565b604082019050919050565b60006020820190508181036000830152620014f781620014b5565b9050919050565b61452b806200150e6000396000f3fe6080604052600436106101805760003560e01c806394643a5c116100d1578063ba5a94141161008a578063f242432a11610064578063f242432a146105ab578063f3ae2415146105d4578063f552102214610611578063ff9415b61461064e57610180565b8063ba5a94141461051c578063bcc30b3514610545578063e985e9c51461056e57610180565b806394643a5c1461041d57806399e8ba9d14610446578063a22cb46514610483578063b2c1991c146104ac578063b390c0ab146104c8578063b540257c146104f157610180565b8063293b61f21161013e57806335c2ec601161011857806335c2ec601461033d578063454a26451461037a5780634e1273f4146103a35780638b5eab21146103e057610180565b8063293b61f2146102ae5780632d212694146102eb5780632eb2c2d61461031457610180565b8062fdd58e14610185578063015ac6e6146101c257806301ffc9a7146101ed578063064b721e1461022a5780630e89341c14610246578063289b3c0d14610283575b600080fd5b34801561019157600080fd5b506101ac60048036038101906101a791906128c5565b610677565b6040516101b99190612914565b60405180910390f35b3480156101ce57600080fd5b506101d761073f565b6040516101e491906129c8565b60405180910390f35b3480156101f957600080fd5b50610214600480360381019061020f9190612a42565b6107e4565b6040516102219190612a8a565b60405180910390f35b610244600480360381019061023f9190612aa5565b6108c6565b005b34801561025257600080fd5b5061026d60048036038101906102689190612aa5565b61094b565b60405161027a91906129c8565b60405180910390f35b34801561028f57600080fd5b506102986109df565b6040516102a59190612af3565b60405180910390f35b3480156102ba57600080fd5b506102d560048036038101906102d09190612aa5565b610a09565b6040516102e29190612b1d565b60405180910390f35b3480156102f757600080fd5b50610312600480360381019061030d9190612b38565b610a46565b005b34801561032057600080fd5b5061033b60048036038101906103369190612d62565b610bca565b005b34801561034957600080fd5b50610364600480360381019061035f91906128c5565b610c6b565b6040516103719190612914565b60405180910390f35b34801561038657600080fd5b506103a1600480360381019061039c9190612e31565b610c9c565b005b3480156103af57600080fd5b506103ca60048036038101906103c59190612f34565b610e80565b6040516103d7919061306a565b60405180910390f35b3480156103ec57600080fd5b5061040760048036038101906104029190612b38565b610f99565b6040516104149190612a8a565b60405180910390f35b34801561042957600080fd5b50610444600480360381019061043f91906130b8565b610fef565b005b34801561045257600080fd5b5061046d60048036038101906104689190612aa5565b611054565b60405161047a9190612b1d565b60405180910390f35b34801561048f57600080fd5b506104aa60048036038101906104a591906130b8565b611087565b005b6104c660048036038101906104c19190612aa5565b61111a565b005b3480156104d457600080fd5b506104ef60048036038101906104ea9190612e31565b611260565b005b3480156104fd57600080fd5b5061050661126f565b6040516105139190612914565b60405180910390f35b34801561052857600080fd5b50610543600480360381019061053e9190613199565b611285565b005b34801561055157600080fd5b5061056c60048036038101906105679190612aa5565b6114fc565b005b34801561057a57600080fd5b50610595600480360381019061059091906131f5565b6115ab565b6040516105a29190612a8a565b60405180910390f35b3480156105b757600080fd5b506105d260048036038101906105cd9190613235565b611645565b005b3480156105e057600080fd5b506105fb60048036038101906105f69190612b38565b6116e6565b6040516106089190612a8a565b60405180910390f35b34801561061d57600080fd5b5061063860048036038101906106339190612b38565b611706565b6040516106459190612a8a565b60405180910390f35b34801561065a57600080fd5b50610675600480360381019061067091906130b8565b611726565b005b60008073ffffffffffffffffffffffffffffffffffffffff168373ffffffffffffffffffffffffffffffffffffffff16036106e7576040517f08c379a00000000000000000000000000000000000000000000000000000000081526004016106de9061333e565b60405180910390fd5b60008083815260200190815260200160002060008473ffffffffffffffffffffffffffffffffffffffff1673ffffffffffffffffffffffffffffffffffffffff16815260200190815260200160002054905092915050565b606060076000600354815260200190815260200160002080546107619061338d565b80601f016020809104026020016040519081016040528092919081815260200182805461078d9061338d565b80156107da5780601f106107af576101008083540402835291602001916107da565b820191906000526020600020905b8154815290600101906020018083116107bd57829003601f168201915b5050505050905090565b60007fd9b67a26000000000000000000000000000000000000000000000000000000007bffffffffffffffffffffffffffffffffffffffffffffffffffffffff1916827bffffffffffffffffffffffffffffffffffffffffffffffffffffffff191614806108af57507f0e89341c000000000000000000000000000000000000000000000000000000007bffffffffffffffffffffffffffffffffffffffffffffffffffffffff1916827bffffffffffffffffffffffffffffffffffffffffffffffffffffffff1916145b806108bf57506108be826117ae565b5b9050919050565b60008111610909576040517f08c379a000000000000000000000000000000000000000000000000000000000815260040161090090613430565b60405180910390fd5b610948600460009054906101000a900473ffffffffffffffffffffffffffffffffffffffff163360008460405180602001604052806000815250611645565b50565b60606002805461095a9061338d565b80601f01602080910402602001604051908101604052809291908181526020018280546109869061338d565b80156109d35780601f106109a8576101008083540402835291602001916109d3565b820191906000526020600020905b8154815290600101906020018083116109b657829003601f168201915b50505050509050919050565b6000600460009054906101000a900473ffffffffffffffffffffffffffffffffffffffff16905090565b60006008600083815260200190815260200160002060009054906101000a900473ffffffffffffffffffffffffffffffffffffffff169050919050565b600460009054906101000a900473ffffffffffffffffffffffffffffffffffffffff1673ffffffffffffffffffffffffffffffffffffffff163373ffffffffffffffffffffffffffffffffffffffff1614610ad6576040517f08c379a0000000000000000000000000000000000000000000000000000000008152600401610acd9061349c565b60405180910390fd5b80600460006101000a81548173ffffffffffffffffffffffffffffffffffffffff021916908373ffffffffffffffffffffffffffffffffffffffff1602179055506001600960008373ffffffffffffffffffffffffffffffffffffffff1673ffffffffffffffffffffffffffffffffffffffff16815260200190815260200160002060006101000a81548160ff0219169083151502179055506001600a60008373ffffffffffffffffffffffffffffffffffffffff1673ffffffffffffffffffffffffffffffffffffffff16815260200190815260200160002060006101000a81548160ff02191690831515021790555050565b610bd2611818565b73ffffffffffffffffffffffffffffffffffffffff168573ffffffffffffffffffffffffffffffffffffffff161480610c185750610c1785610c12611818565b6115ab565b5b610c57576040517f08c379a0000000000000000000000000000000000000000000000000000000008152600401610c4e9061352e565b60405180910390fd5b610c648585858585611820565b5050505050565b600b6020528160005260406000208181548110610c8757600080fd5b90600052602060002001600091509150505481565b600960003373ffffffffffffffffffffffffffffffffffffffff1673ffffffffffffffffffffffffffffffffffffffff16815260200190815260200160002060009054906101000a900460ff1680610d4157503373ffffffffffffffffffffffffffffffffffffffff16600460009054906101000a900473ffffffffffffffffffffffffffffffffffffffff1673ffffffffffffffffffffffffffffffffffffffff16145b610d80576040517f08c379a0000000000000000000000000000000000000000000000000000000008152600401610d779061359a565b60405180910390fd5b600354811115610dc5576040517f08c379a0000000000000000000000000000000000000000000000000000000008152600401610dbc9061362c565b60405180910390fd5b600081141580610e225750600460009054906101000a900473ffffffffffffffffffffffffffffffffffffffff1673ffffffffffffffffffffffffffffffffffffffff163373ffffffffffffffffffffffffffffffffffffffff16145b610e61576040517f08c379a0000000000000000000000000000000000000000000000000000000008152600401610e58906136be565b60405180910390fd5b610e7c33828460405180602001604052806000815250611b41565b5050565b60608151835114610ec6576040517f08c379a0000000000000000000000000000000000000000000000000000000008152600401610ebd90613750565b60405180910390fd5b6000835167ffffffffffffffff811115610ee357610ee2612b6a565b5b604051908082528060200260200182016040528015610f115781602001602082028036833780820191505090505b50905060005b8451811015610f8e57610f5e858281518110610f3657610f35613770565b5b6020026020010151858381518110610f5157610f50613770565b5b6020026020010151610677565b828281518110610f7157610f70613770565b5b60200260200101818152505080610f87906137ce565b9050610f17565b508091505092915050565b6000600960008373ffffffffffffffffffffffffffffffffffffffff1673ffffffffffffffffffffffffffffffffffffffff16815260200190815260200160002060009054906101000a900460ff169050919050565b610ff98282611087565b80600a60003373ffffffffffffffffffffffffffffffffffffffff1673ffffffffffffffffffffffffffffffffffffffff16815260200190815260200160002060006101000a81548160ff0219169083151502179055505050565b60086020528060005260406000206000915054906101000a900473ffffffffffffffffffffffffffffffffffffffff1681565b60008290506000600460009054906101000a900473ffffffffffffffffffffffffffffffffffffffff169050600460009054906101000a900473ffffffffffffffffffffffffffffffffffffffff1673ffffffffffffffffffffffffffffffffffffffff168473ffffffffffffffffffffffffffffffffffffffff161461111457611113828285611cf1565b5b50505050565b6000811161115d576040517f08c379a000000000000000000000000000000000000000000000000000000000815260040161115490613862565b60405180910390fd5b80611169336000610677565b10156111aa576040517f08c379a00000000000000000000000000000000000000000000000000000000081526004016111a1906138f4565b60405180910390fd5b3373ffffffffffffffffffffffffffffffffffffffff166108fc829081150290604051600060405180830381858888f1935050505061121e576040517f08c379a000000000000000000000000000000000000000000000000000000000815260040161121590613960565b60405180910390fd5b61125d33600460009054906101000a900473ffffffffffffffffffffffffffffffffffffffff1660003460405180602001604052806000815250611645565b50565b61126b338383611e5d565b5050565b600060016003546112809190613980565b905090565b600960003373ffffffffffffffffffffffffffffffffffffffff1673ffffffffffffffffffffffffffffffffffffffff16815260200190815260200160002060009054906101000a900460ff168061132a57503373ffffffffffffffffffffffffffffffffffffffff16600460009054906101000a900473ffffffffffffffffffffffffffffffffffffffff1673ffffffffffffffffffffffffffffffffffffffff16145b611369576040517f08c379a00000000000000000000000000000000000000000000000000000000081526004016113609061359a565b60405180910390fd5b6003600081548092919061137c906137ce565b91905055506000600560006002811061139857611397613770565b5b01826040516020016113ab929190613aaa565b60405160208183030381529060405260056001600281106113cf576113ce613770565b5b016040516020016113e1929190613ace565b60405160208183030381529060405290508060076000600354815260200190815260200160002090816114149190613c89565b5061141e816120a3565b61143b336003548560405180602001604052806000815250611b41565b600b60003373ffffffffffffffffffffffffffffffffffffffff1673ffffffffffffffffffffffffffffffffffffffff16815260200190815260200160002060035490806001815401808255809150506001900390600052602060002001600090919091909150553360086000600354815260200190815260200160002060006101000a81548173ffffffffffffffffffffffffffffffffffffffff021916908373ffffffffffffffffffffffffffffffffffffffff160217905550505050565b600460009054906101000a900473ffffffffffffffffffffffffffffffffffffffff1673ffffffffffffffffffffffffffffffffffffffff163373ffffffffffffffffffffffffffffffffffffffff161461158c576040517f08c379a00000000000000000000000000000000000000000000000000000000081526004016115839061349c565b60405180910390fd5b6115a83360008360405180602001604052806000815250611b41565b50565b6000808390506000600460009054906101000a900473ffffffffffffffffffffffffffffffffffffffff169050600460009054906101000a900473ffffffffffffffffffffffffffffffffffffffff1673ffffffffffffffffffffffffffffffffffffffff168573ffffffffffffffffffffffffffffffffffffffff1603611631578390505b61163b82826120b6565b9250505092915050565b61164d611818565b73ffffffffffffffffffffffffffffffffffffffff168573ffffffffffffffffffffffffffffffffffffffff16148061169357506116928561168d611818565b6115ab565b5b6116d2576040517f08c379a00000000000000000000000000000000000000000000000000000000081526004016116c99061352e565b60405180910390fd5b6116df858585858561214a565b5050505050565b600a6020528060005260406000206000915054906101000a900460ff1681565b60096020528060005260406000206000915054906101000a900460ff1681565b6117308282611087565b80600960003373ffffffffffffffffffffffffffffffffffffffff1673ffffffffffffffffffffffffffffffffffffffff16815260200190815260200160002060006101000a81548160ff0219169083151502179055505050565b6000808273ffffffffffffffffffffffffffffffffffffffff163b119050919050565b60007f01ffc9a7000000000000000000000000000000000000000000000000000000007bffffffffffffffffffffffffffffffffffffffffffffffffffffffff1916827bffffffffffffffffffffffffffffffffffffffffffffffffffffffff1916149050919050565b600033905090565b8151835114611864576040517f08c379a000000000000000000000000000000000000000000000000000000000815260040161185b90613dcd565b60405180910390fd5b600073ffffffffffffffffffffffffffffffffffffffff168473ffffffffffffffffffffffffffffffffffffffff16036118d3576040517f08c379a00000000000000000000000000000000000000000000000000000000081526004016118ca90613e5f565b60405180910390fd5b60006118dd611818565b90506118ed8187878787876123e5565b60005b8451811015611a9e57600085828151811061190e5761190d613770565b5b60200260200101519050600085838151811061192d5761192c613770565b5b60200260200101519050600080600084815260200190815260200160002060008b73ffffffffffffffffffffffffffffffffffffffff1673ffffffffffffffffffffffffffffffffffffffff168152602001908152602001600020549050818110156119ce576040517f08c379a00000000000000000000000000000000000000000000000000000000081526004016119c590613ef1565b60405180910390fd5b81810360008085815260200190815260200160002060008c73ffffffffffffffffffffffffffffffffffffffff1673ffffffffffffffffffffffffffffffffffffffff168152602001908152602001600020819055508160008085815260200190815260200160002060008b73ffffffffffffffffffffffffffffffffffffffff1673ffffffffffffffffffffffffffffffffffffffff1681526020019081526020016000206000828254611a839190613980565b9250508190555050505080611a97906137ce565b90506118f0565b508473ffffffffffffffffffffffffffffffffffffffff168673ffffffffffffffffffffffffffffffffffffffff168273ffffffffffffffffffffffffffffffffffffffff167f4a39dc06d4c0dbc64b70af90fd698a233a518aa5d07e595d983b8c0526c8f7fb8787604051611b15929190613f11565b60405180910390a4611b2b8187878787876123ed565b611b398187878787876123f5565b505050505050565b600073ffffffffffffffffffffffffffffffffffffffff168473ffffffffffffffffffffffffffffffffffffffff1603611bb0576040517f08c379a0000000000000000000000000000000000000000000000000000000008152600401611ba790613fba565b60405180910390fd5b6000611bba611818565b90506000611bc7856125cc565b90506000611bd4856125cc565b9050611be5836000898585896123e5565b8460008088815260200190815260200160002060008973ffffffffffffffffffffffffffffffffffffffff1673ffffffffffffffffffffffffffffffffffffffff1681526020019081526020016000206000828254611c449190613980565b925050819055508673ffffffffffffffffffffffffffffffffffffffff16600073ffffffffffffffffffffffffffffffffffffffff168473ffffffffffffffffffffffffffffffffffffffff167fc3d58168c5ae7397731d063d5bbf3d657854427343f4c083240f7aacaa2d0f628989604051611cc2929190613fda565b60405180910390a4611cd9836000898585896123ed565b611ce883600089898989612646565b50505050505050565b8173ffffffffffffffffffffffffffffffffffffffff168373ffffffffffffffffffffffffffffffffffffffff1603611d5f576040517f08c379a0000000000000000000000000000000000000000000000000000000008152600401611d5690614075565b60405180910390fd5b80600160008573ffffffffffffffffffffffffffffffffffffffff1673ffffffffffffffffffffffffffffffffffffffff16815260200190815260200160002060008473ffffffffffffffffffffffffffffffffffffffff1673ffffffffffffffffffffffffffffffffffffffff16815260200190815260200160002060006101000a81548160ff0219169083151502179055508173ffffffffffffffffffffffffffffffffffffffff168373ffffffffffffffffffffffffffffffffffffffff167f17307eab39ab6107e8899845ad3d59bd9653f200f220920489ca2b5937696c3183604051611e509190612a8a565b60405180910390a3505050565b600073ffffffffffffffffffffffffffffffffffffffff168373ffffffffffffffffffffffffffffffffffffffff1603611ecc576040517f08c379a0000000000000000000000000000000000000000000000000000000008152600401611ec390614107565b60405180910390fd5b6000611ed6611818565b90506000611ee3846125cc565b90506000611ef0846125cc565b9050611f10838760008585604051806020016040528060008152506123e5565b600080600087815260200190815260200160002060008873ffffffffffffffffffffffffffffffffffffffff1673ffffffffffffffffffffffffffffffffffffffff16815260200190815260200160002054905084811015611fa7576040517f08c379a0000000000000000000000000000000000000000000000000000000008152600401611f9e90614199565b60405180910390fd5b84810360008088815260200190815260200160002060008973ffffffffffffffffffffffffffffffffffffffff1673ffffffffffffffffffffffffffffffffffffffff16815260200190815260200160002081905550600073ffffffffffffffffffffffffffffffffffffffff168773ffffffffffffffffffffffffffffffffffffffff168573ffffffffffffffffffffffffffffffffffffffff167fc3d58168c5ae7397731d063d5bbf3d657854427343f4c083240f7aacaa2d0f628989604051612074929190613fda565b60405180910390a461209a848860008686604051806020016040528060008152506123ed565b50505050505050565b80600290816120b29190613c89565b5050565b6000600160008473ffffffffffffffffffffffffffffffffffffffff1673ffffffffffffffffffffffffffffffffffffffff16815260200190815260200160002060008373ffffffffffffffffffffffffffffffffffffffff1673ffffffffffffffffffffffffffffffffffffffff16815260200190815260200160002060009054906101000a900460ff16905092915050565b600073ffffffffffffffffffffffffffffffffffffffff168473ffffffffffffffffffffffffffffffffffffffff16036121b9576040517f08c379a00000000000000000000000000000000000000000000000000000000081526004016121b090613e5f565b60405180910390fd5b60006121c3611818565b905060006121d0856125cc565b905060006121dd856125cc565b90506121ed8389898585896123e5565b600080600088815260200190815260200160002060008a73ffffffffffffffffffffffffffffffffffffffff1673ffffffffffffffffffffffffffffffffffffffff16815260200190815260200160002054905085811015612284576040517f08c379a000000000000000000000000000000000000000000000000000000000815260040161227b90613ef1565b60405180910390fd5b85810360008089815260200190815260200160002060008b73ffffffffffffffffffffffffffffffffffffffff1673ffffffffffffffffffffffffffffffffffffffff168152602001908152602001600020819055508560008089815260200190815260200160002060008a73ffffffffffffffffffffffffffffffffffffffff1673ffffffffffffffffffffffffffffffffffffffff16815260200190815260200160002060008282546123399190613980565b925050819055508773ffffffffffffffffffffffffffffffffffffffff168973ffffffffffffffffffffffffffffffffffffffff168573ffffffffffffffffffffffffffffffffffffffff167fc3d58168c5ae7397731d063d5bbf3d657854427343f4c083240f7aacaa2d0f628a8a6040516123b6929190613fda565b60405180910390a46123cc848a8a86868a6123ed565b6123da848a8a8a8a8a612646565b505050505050505050565b505050505050565b505050505050565b6124148473ffffffffffffffffffffffffffffffffffffffff1661178b565b156125c4578373ffffffffffffffffffffffffffffffffffffffff1663bc197c8187878686866040518663ffffffff1660e01b815260040161245a95949392919061420e565b6020604051808303816000875af192505050801561249657506040513d601f19601f82011682018060405250810190612493919061428b565b60015b61253b576124a26142c5565b806308c379a0036124fe57506124b66142e7565b806124c15750612500565b806040517f08c379a00000000000000000000000000000000000000000000000000000000081526004016124f591906129c8565b60405180910390fd5b505b6040517f08c379a0000000000000000000000000000000000000000000000000000000008152600401612532906143e9565b60405180910390fd5b63bc197c8160e01b7bffffffffffffffffffffffffffffffffffffffffffffffffffffffff1916817bffffffffffffffffffffffffffffffffffffffffffffffffffffffff1916146125c2576040517f08c379a00000000000000000000000000000000000000000000000000000000081526004016125b99061447b565b60405180910390fd5b505b505050505050565b60606000600167ffffffffffffffff8111156125eb576125ea612b6a565b5b6040519080825280602002602001820160405280156126195781602001602082028036833780820191505090505b509050828160008151811061263157612630613770565b5b60200260200101818152505080915050919050565b6126658473ffffffffffffffffffffffffffffffffffffffff1661178b565b15612815578373ffffffffffffffffffffffffffffffffffffffff1663f23a6e6187878686866040518663ffffffff1660e01b81526004016126ab95949392919061449b565b6020604051808303816000875af19250505080156126e757506040513d601f19601f820116820180604052508101906126e4919061428b565b60015b61278c576126f36142c5565b806308c379a00361274f57506127076142e7565b806127125750612751565b806040517f08c379a000000000000000000000000000000000000000000000000000000000815260040161274691906129c8565b60405180910390fd5b505b6040517f08c379a0000000000000000000000000000000000000000000000000000000008152600401612783906143e9565b60405180910390fd5b63f23a6e6160e01b7bffffffffffffffffffffffffffffffffffffffffffffffffffffffff1916817bffffffffffffffffffffffffffffffffffffffffffffffffffffffff191614612813576040517f08c379a000000000000000000000000000000000000000000000000000000000815260040161280a9061447b565b60405180910390fd5b505b505050505050565b6000604051905090565b600080fd5b600080fd5b600073ffffffffffffffffffffffffffffffffffffffff82169050919050565b600061285c82612831565b9050919050565b61286c81612851565b811461287757600080fd5b50565b60008135905061288981612863565b92915050565b6000819050919050565b6128a28161288f565b81146128ad57600080fd5b50565b6000813590506128bf81612899565b92915050565b600080604083850312156128dc576128db612827565b5b60006128ea8582860161287a565b92505060206128fb858286016128b0565b9150509250929050565b61290e8161288f565b82525050565b60006020820190506129296000830184612905565b92915050565b600081519050919050565b600082825260208201905092915050565b60005b8381101561296957808201518184015260208101905061294e565b83811115612978576000848401525b50505050565b6000601f19601f8301169050919050565b600061299a8261292f565b6129a4818561293a565b93506129b481856020860161294b565b6129bd8161297e565b840191505092915050565b600060208201905081810360008301526129e2818461298f565b905092915050565b60007fffffffff0000000000000000000000000000000000000000000000000000000082169050919050565b612a1f816129ea565b8114612a2a57600080fd5b50565b600081359050612a3c81612a16565b92915050565b600060208284031215612a5857612a57612827565b5b6000612a6684828501612a2d565b91505092915050565b60008115159050919050565b612a8481612a6f565b82525050565b6000602082019050612a9f6000830184612a7b565b92915050565b600060208284031215612abb57612aba612827565b5b6000612ac9848285016128b0565b91505092915050565b6000612add82612831565b9050919050565b612aed81612ad2565b82525050565b6000602082019050612b086000830184612ae4565b92915050565b612b1781612851565b82525050565b6000602082019050612b326000830184612b0e565b92915050565b600060208284031215612b4e57612b4d612827565b5b6000612b5c8482850161287a565b91505092915050565b600080fd5b7f4e487b7100000000000000000000000000000000000000000000000000000000600052604160045260246000fd5b612ba28261297e565b810181811067ffffffffffffffff82111715612bc157612bc0612b6a565b5b80604052505050565b6000612bd461281d565b9050612be08282612b99565b919050565b600067ffffffffffffffff821115612c0057612bff612b6a565b5b602082029050602081019050919050565b600080fd5b6000612c29612c2484612be5565b612bca565b90508083825260208201905060208402830185811115612c4c57612c4b612c11565b5b835b81811015612c755780612c6188826128b0565b845260208401935050602081019050612c4e565b5050509392505050565b600082601f830112612c9457612c93612b65565b5b8135612ca4848260208601612c16565b91505092915050565b600080fd5b600067ffffffffffffffff821115612ccd57612ccc612b6a565b5b612cd68261297e565b9050602081019050919050565b82818337600083830152505050565b6000612d05612d0084612cb2565b612bca565b905082815260208101848484011115612d2157612d20612cad565b5b612d2c848285612ce3565b509392505050565b600082601f830112612d4957612d48612b65565b5b8135612d59848260208601612cf2565b91505092915050565b600080600080600060a08688031215612d7e57612d7d612827565b5b6000612d8c8882890161287a565b9550506020612d9d8882890161287a565b945050604086013567ffffffffffffffff811115612dbe57612dbd61282c565b5b612dca88828901612c7f565b935050606086013567ffffffffffffffff811115612deb57612dea61282c565b5b612df788828901612c7f565b925050608086013567ffffffffffffffff811115612e1857612e1761282c565b5b612e2488828901612d34565b9150509295509295909350565b60008060408385031215612e4857612e47612827565b5b6000612e56858286016128b0565b9250506020612e67858286016128b0565b9150509250929050565b600067ffffffffffffffff821115612e8c57612e8b612b6a565b5b602082029050602081019050919050565b6000612eb0612eab84612e71565b612bca565b90508083825260208201905060208402830185811115612ed357612ed2612c11565b5b835b81811015612efc5780612ee8888261287a565b845260208401935050602081019050612ed5565b5050509392505050565b600082601f830112612f1b57612f1a612b65565b5b8135612f2b848260208601612e9d565b91505092915050565b60008060408385031215612f4b57612f4a612827565b5b600083013567ffffffffffffffff811115612f6957612f6861282c565b5b612f7585828601612f06565b925050602083013567ffffffffffffffff811115612f9657612f9561282c565b5b612fa285828601612c7f565b9150509250929050565b600081519050919050565b600082825260208201905092915050565b6000819050602082019050919050565b612fe18161288f565b82525050565b6000612ff38383612fd8565b60208301905092915050565b6000602082019050919050565b600061301782612fac565b6130218185612fb7565b935061302c83612fc8565b8060005b8381101561305d5781516130448882612fe7565b975061304f83612fff565b925050600181019050613030565b5085935050505092915050565b60006020820190508181036000830152613084818461300c565b905092915050565b61309581612a6f565b81146130a057600080fd5b50565b6000813590506130b28161308c565b92915050565b600080604083850312156130cf576130ce612827565b5b60006130dd8582860161287a565b92505060206130ee858286016130a3565b9150509250929050565b600067ffffffffffffffff82111561311357613112612b6a565b5b61311c8261297e565b9050602081019050919050565b600061313c613137846130f8565b612bca565b90508281526020810184848401111561315857613157612cad565b5b613163848285612ce3565b509392505050565b600082601f8301126131805761317f612b65565b5b8135613190848260208601613129565b91505092915050565b600080604083850312156131b0576131af612827565b5b60006131be858286016128b0565b925050602083013567ffffffffffffffff8111156131df576131de61282c565b5b6131eb8582860161316b565b9150509250929050565b6000806040838503121561320c5761320b612827565b5b600061321a8582860161287a565b925050602061322b8582860161287a565b9150509250929050565b600080600080600060a0868803121561325157613250612827565b5b600061325f8882890161287a565b95505060206132708882890161287a565b9450506040613281888289016128b0565b9350506060613292888289016128b0565b925050608086013567ffffffffffffffff8111156132b3576132b261282c565b5b6132bf88828901612d34565b9150509295509295909350565b7f455243313135353a2061646472657373207a65726f206973206e6f742061207660008201527f616c6964206f776e657200000000000000000000000000000000000000000000602082015250565b6000613328602a8361293a565b9150613333826132cc565b604082019050919050565b600060208201905081810360008301526133578161331b565b9050919050565b7f4e487b7100000000000000000000000000000000000000000000000000000000600052602260045260246000fd5b600060028204905060018216806133a557607f821691505b6020821081036133b8576133b761335e565b5b50919050565b7f5468697320576569206973206e6f7420656e6f75676820746f2062757920612060008201527f746f6b656e2e0000000000000000000000000000000000000000000000000000602082015250565b600061341a60268361293a565b9150613425826133be565b604082019050919050565b600060208201905081810360008301526134498161340d565b9050919050565b7f6f6e6c7920676f727665726e616e63652063616e2063616c6c20746869730000600082015250565b6000613486601e8361293a565b915061349182613450565b602082019050919050565b600060208201905081810360008301526134b581613479565b9050919050565b7f455243313135353a2063616c6c6572206973206e6f7420746f6b656e206f776e60008201527f6572206e6f7220617070726f7665640000000000000000000000000000000000602082015250565b6000613518602f8361293a565b9150613523826134bc565b604082019050919050565b600060208201905081810360008301526135478161350b565b9050919050565b7f6f6e6c792070726f64756365722063616e2063616c6c20746869732e00000000600082015250565b6000613584601c8361293a565b915061358f8261354e565b602082019050919050565b600060208201905081810360008301526135b381613577565b9050919050565b7f556e72656769737465726564206974656d2063616e6e6f742062652070726f6460008201527f756365642e000000000000000000000000000000000000000000000000000000602082015250565b600061361660258361293a565b9150613621826135ba565b604082019050919050565b6000602082019050818103600083015261364581613609565b9050919050565b7f4f6e6c792074686520676f7665726e6d656e742063616e2070726f647563652060008201527f746f6b656e732e00000000000000000000000000000000000000000000000000602082015250565b60006136a860278361293a565b91506136b38261364c565b604082019050919050565b600060208201905081810360008301526136d78161369b565b9050919050565b7f455243313135353a206163636f756e747320616e6420696473206c656e67746860008201527f206d69736d617463680000000000000000000000000000000000000000000000602082015250565b600061373a60298361293a565b9150613745826136de565b604082019050919050565b600060208201905081810360008301526137698161372d565b9050919050565b7f4e487b7100000000000000000000000000000000000000000000000000000000600052603260045260246000fd5b7f4e487b7100000000000000000000000000000000000000000000000000000000600052601160045260246000fd5b60006137d98261288f565b91507fffffffffffffffffffffffffffffffffffffffffffffffffffffffffffffffff820361380b5761380a61379f565b5b600182019050919050565b7f4f766572207a65726f2e00000000000000000000000000000000000000000000600082015250565b600061384c600a8361293a565b915061385782613816565b602082019050919050565b6000602082019050818103600083015261387b8161383f565b9050919050565b7f546f6b656e206973206e6f7420656e6f75676820746f2065786368616e67652060008201527f666f722061205765692e00000000000000000000000000000000000000000000602082015250565b60006138de602a8361293a565b91506138e982613882565b604082019050919050565b6000602082019050818103600083015261390d816138d1565b9050919050565b7f6661696c656420746f2065786368616e67650000000000000000000000000000600082015250565b600061394a60128361293a565b915061395582613914565b602082019050919050565b600060208201905081810360008301526139798161393d565b9050919050565b600061398b8261288f565b91506139968361288f565b9250827fffffffffffffffffffffffffffffffffffffffffffffffffffffffffffffffff038211156139cb576139ca61379f565b5b828201905092915050565b600081905092915050565b60008190508160005260206000209050919050565b60008154613a038161338d565b613a0d81866139d6565b94506001821660008114613a285760018114613a3d57613a70565b60ff1983168652811515820286019350613a70565b613a46856139e1565b60005b83811015613a6857815481890152600182019150602081019050613a49565b838801955050505b50505092915050565b6000613a848261292f565b613a8e81856139d6565b9350613a9e81856020860161294b565b80840191505092915050565b6000613ab682856139f6565b9150613ac28284613a79565b91508190509392505050565b6000613ada8285613a79565b9150613ae682846139f6565b91508190509392505050565b60006020601f8301049050919050565b600082821b905092915050565b600060088302613b3f7fffffffffffffffffffffffffffffffffffffffffffffffffffffffffffffffff82613b02565b613b498683613b02565b95508019841693508086168417925050509392505050565b6000819050919050565b6000613b86613b81613b7c8461288f565b613b61565b61288f565b9050919050565b6000819050919050565b613ba083613b6b565b613bb4613bac82613b8d565b848454613b0f565b825550505050565b600090565b613bc9613bbc565b613bd4818484613b97565b505050565b5b81811015613bf857613bed600082613bc1565b600181019050613bda565b5050565b601f821115613c3d57613c0e816139e1565b613c1784613af2565b81016020851015613c26578190505b613c3a613c3285613af2565b830182613bd9565b50505b505050565b600082821c905092915050565b6000613c6060001984600802613c42565b1980831691505092915050565b6000613c798383613c4f565b9150826002028217905092915050565b613c928261292f565b67ffffffffffffffff811115613cab57613caa612b6a565b5b613cb5825461338d565b613cc0828285613bfc565b600060209050601f831160018114613cf35760008415613ce1578287015190505b613ceb8582613c6d565b865550613d53565b601f198416613d01866139e1565b60005b82811015613d2957848901518255600182019150602085019450602081019050613d04565b86831015613d465784890151613d42601f891682613c4f565b8355505b6001600288020188555050505b505050505050565b7f455243313135353a2069647320616e6420616d6f756e7473206c656e6774682060008201527f6d69736d61746368000000000000000000000000000000000000000000000000602082015250565b6000613db760288361293a565b9150613dc282613d5b565b604082019050919050565b60006020820190508181036000830152613de681613daa565b9050919050565b7f455243313135353a207472616e7366657220746f20746865207a65726f20616460008201527f6472657373000000000000000000000000000000000000000000000000000000602082015250565b6000613e4960258361293a565b9150613e5482613ded565b604082019050919050565b60006020820190508181036000830152613e7881613e3c565b9050919050565b7f455243313135353a20696e73756666696369656e742062616c616e636520666f60008201527f72207472616e7366657200000000000000000000000000000000000000000000602082015250565b6000613edb602a8361293a565b9150613ee682613e7f565b604082019050919050565b60006020820190508181036000830152613f0a81613ece565b9050919050565b60006040820190508181036000830152613f2b818561300c565b90508181036020830152613f3f818461300c565b90509392505050565b7f455243313135353a206d696e7420746f20746865207a65726f2061646472657360008201527f7300000000000000000000000000000000000000000000000000000000000000602082015250565b6000613fa460218361293a565b9150613faf82613f48565b604082019050919050565b60006020820190508181036000830152613fd381613f97565b9050919050565b6000604082019050613fef6000830185612905565b613ffc6020830184612905565b9392505050565b7f455243313135353a2073657474696e6720617070726f76616c2073746174757360008201527f20666f722073656c660000000000000000000000000000000000000000000000602082015250565b600061405f60298361293a565b915061406a82614003565b604082019050919050565b6000602082019050818103600083015261408e81614052565b9050919050565b7f455243313135353a206275726e2066726f6d20746865207a65726f206164647260008201527f6573730000000000000000000000000000000000000000000000000000000000602082015250565b60006140f160238361293a565b91506140fc82614095565b604082019050919050565b60006020820190508181036000830152614120816140e4565b9050919050565b7f455243313135353a206275726e20616d6f756e7420657863656564732062616c60008201527f616e636500000000000000000000000000000000000000000000000000000000602082015250565b600061418360248361293a565b915061418e82614127565b604082019050919050565b600060208201905081810360008301526141b281614176565b9050919050565b600081519050919050565b600082825260208201905092915050565b60006141e0826141b9565b6141ea81856141c4565b93506141fa81856020860161294b565b6142038161297e565b840191505092915050565b600060a0820190506142236000830188612b0e565b6142306020830187612b0e565b8181036040830152614242818661300c565b90508181036060830152614256818561300c565b9050818103608083015261426a81846141d5565b90509695505050505050565b60008151905061428581612a16565b92915050565b6000602082840312156142a1576142a0612827565b5b60006142af84828501614276565b91505092915050565b60008160e01c9050919050565b600060033d11156142e45760046000803e6142e16000516142b8565b90505b90565b600060443d10614374576142f961281d565b60043d036004823e80513d602482011167ffffffffffffffff82111715614321575050614374565b808201805167ffffffffffffffff81111561433f5750505050614374565b80602083010160043d03850181111561435c575050505050614374565b61436b82602001850186612b99565b82955050505050505b90565b7f455243313135353a207472616e7366657220746f206e6f6e204552433131353560008201527f526563656976657220696d706c656d656e746572000000000000000000000000602082015250565b60006143d360348361293a565b91506143de82614377565b604082019050919050565b60006020820190508181036000830152614402816143c6565b9050919050565b7f455243313135353a204552433131353552656365697665722072656a6563746560008201527f6420746f6b656e73000000000000000000000000000000000000000000000000602082015250565b600061446560288361293a565b915061447082614409565b604082019050919050565b6000602082019050818103600083015261449481614458565b9050919050565b600060a0820190506144b06000830188612b0e565b6144bd6020830187612b0e565b6144ca6040830186612905565b6144d76060830185612905565b81810360808301526144e981846141d5565b9050969550505050505056fea2646970667358221220c35929f341d60b0ce06ddcec50c2fb369e6d3edf59ae30e39754dc8f687438f464736f6c634300080f0033",
  "immutableReferences": {},
  "source": "// SPDX-License-Identifier: MIT\npragma solidity >=0.5.16;\n\nimport \"../node_modules/@openzeppelin/contracts/token/ERC1155/ERC1155.sol\";\n\ncontract ItemContract is ERC1155 {\n\n    uint256 internal itemId;\n\n    address payable internal governance;\n\n    string[2] baseURI = [\"https://ipfs.io/ipfs/\", \"/{id}.json\"];\n\n    mapping(uint256 => string) uriMap; // items length => dirCID;\n    \n    mapping(uint256 => address) public producerOf; // itemId => producer;\n    mapping(address => bool) public isProducer;\n    mapping(address => bool) public isManager;\n    mapping(address => uint256[]) public mintList;\n\n\n    constructor(string memory _dirCID) public ERC1155(string.concat(string.concat(baseURI[0], _dirCID),baseURI[1])) {\n        itemId = 0;\n        governance = payable(msg.sender);\n        isProducer[governance] = true;\n        isManager[governance] = true;\n        _mint(governance, itemId, 10**18, \"\");\n        mintList[governance].push(0); \n        uriMap[itemId] = _dirCID;\n    }\n    \n    function getProducerOf(uint256 _itemId) external view returns(address){\n        return producerOf[_itemId];\n    }\n\n    function getIsProducer(address _user) public view returns(bool){\n        return isProducer[_user];\n    }\n\n    function getGovernance() public view returns(address payable){\n        return governance;\n    }\n\n    modifier onlyProducer(){\n        require(isProducer[msg.sender] || governance == msg.sender, \"only producer can call this.\");\n        _;\n    }\n\n    modifier onlyGovernance(){\n        require(msg.sender == governance, \"only gorvernance can call this\");\n        _;\n    }\n\n    function WeitoMMT(uint256 _amount) public payable {\n        require(_amount > 0, \"This Wei is not enough to buy a token.\");\n        safeTransferFrom(governance, payable(msg.sender), 0, _amount, \"\");\n    }\n\n    function MMTtoWei(uint amount) public payable {\n        require(amount > 0, \"Over zero.\");\n        require(balanceOf(msg.sender, 0) >= amount, \"Token is not enough to exchange for a Wei.\");\n        require(payable(msg.sender).send(amount), \"failed to exchange\");\n        safeTransferFrom(msg.sender, governance, 0, msg.value, \"\");\n    } \n\n    function mintMMT(uint _amount) public onlyGovernance(){\n        _mint(msg.sender, 0, _amount, \"\");\n    }\n\n    function mintItemByItemId(uint _stock, uint _itemId) public onlyProducer(){\n        require(_itemId <= itemId, \"Unregistered item cannot be produced.\");\n        require(_itemId != 0 || msg.sender == governance, \"Only the government can produce tokens.\");\n        _mint(msg.sender, _itemId, _stock, \"\");\n    }\n\n    function getNewItemId() public view returns(uint256){\n        return itemId+1;\n    }\n\n    function createItem(uint256 _amount, string memory _dirCID) public onlyProducer(){\n        itemId++;\n        string memory newURI = string.concat(string.concat(baseURI[0], _dirCID), baseURI[1]);\n        uriMap[itemId] = newURI;\n        _setURI(newURI);\n        _mint(msg.sender, itemId, _amount, \"\");\n        mintList[msg.sender].push(itemId);\n        producerOf[itemId] = msg.sender;\n    }\n\n    function getURILatest() public view returns(string memory){\n        return uriMap[itemId];\n    }\n\n    function setApprovalForAll(address _user,bool flag) public override{\n        address from = _user;\n        address to = governance;\n        if(_user != governance){\n            _setApprovalForAll(from, to, flag);\n        }\n    }\n\n    function burn(uint256 _itemId, uint256 _amount) public{\n        _burn(msg.sender, _itemId, _amount);\n    }\n\n    function isApprovedForAll(address _user, address _contract) public view override returns(bool){\n        address from = _user;\n        address to = governance;\n\n        if(_user == governance){\n            to = _contract;\n        }\n\n        return super.isApprovedForAll(from,to);    \n    }\n\n\n    function setUserToGovernance(address _user) public onlyGovernance(){\n        governance = payable(_user);\n        isProducer[_user] = true;\n        isManager[_user] = true;\n    }\n\n    function setUserToProducer(address _user, bool flag) public {\n        setApprovalForAll(_user, flag);\n        isProducer[msg.sender] = flag;\n    }\n\n    function setUserToManager(address _user, bool flag) public {\n        setApprovalForAll(_user, flag);\n        isManager[msg.sender] = flag;\n    }\n\n}",
  "sourcePath": "/Users/c_rbi/testNet/PNU-milknmeat_test/back-end/smart_contract/contracts/Item.sol",
  "compiler": {
    "name": "solc",
    "version": "0.8.15+commit.e14f2714.Emscripten.clang"
  },
  "schemaVersion": "3.4.10",
  "updatedAt": "2022-09-29T10:04:45.822Z",
  "networkType": "ethereum",
  "devdoc": {
    "kind": "dev",
    "methods": {
      "balanceOf(address,uint256)": {
        "details": "See {IERC1155-balanceOf}. Requirements: - `account` cannot be the zero address."
      },
      "balanceOfBatch(address[],uint256[])": {
        "details": "See {IERC1155-balanceOfBatch}. Requirements: - `accounts` and `ids` must have the same length."
      },
      "safeBatchTransferFrom(address,address,uint256[],uint256[],bytes)": {
        "details": "See {IERC1155-safeBatchTransferFrom}."
      },
      "safeTransferFrom(address,address,uint256,uint256,bytes)": {
        "details": "See {IERC1155-safeTransferFrom}."
      },
      "supportsInterface(bytes4)": {
        "details": "See {IERC165-supportsInterface}."
      },
      "uri(uint256)": {
        "details": "See {IERC1155MetadataURI-uri}. This implementation returns the same URI for *all* token types. It relies on the token type ID substitution mechanism https://eips.ethereum.org/EIPS/eip-1155#metadata[defined in the EIP]. Clients calling this function must replace the `\\{id\\}` substring with the actual token type ID."
      }
    },
    "version": 1
  },
  "userdoc": {
    "kind": "user",
    "methods": {},
    "version": 1
  }
}