{
  "contractName": "SupplyContract",
  "abi": [
    {
      "inputs": [
        {
          "internalType": "address",
          "name": "_itemToken",
          "type": "address"
        }
      ],
      "stateMutability": "nonpayable",
      "type": "constructor"
    },
    {
      "inputs": [
        {
          "internalType": "uint256",
          "name": "",
          "type": "uint256"
        }
      ],
      "name": "auctionTree",
      "outputs": [
        {
          "internalType": "uint256",
          "name": "",
          "type": "uint256"
        }
      ],
      "stateMutability": "view",
      "type": "function",
      "constant": true
    },
    {
      "inputs": [
        {
          "internalType": "uint256",
          "name": "",
          "type": "uint256"
        }
      ],
      "name": "supplyData",
      "outputs": [
        {
          "internalType": "address",
          "name": "producer",
          "type": "address"
        },
        {
          "internalType": "enum SupplyContract.DeliveryStatus",
          "name": "deliveryStatus",
          "type": "uint8"
        }
      ],
      "stateMutability": "view",
      "type": "function",
      "constant": true
    },
    {
      "inputs": [
        {
          "internalType": "uint256",
          "name": "_auctionId",
          "type": "uint256"
        }
      ],
      "name": "deliveryStartByItemId",
      "outputs": [],
      "stateMutability": "nonpayable",
      "type": "function"
    },
    {
      "inputs": [
        {
          "internalType": "uint256",
          "name": "_auctionId",
          "type": "uint256"
        }
      ],
      "name": "deliveryEndByItemId",
      "outputs": [],
      "stateMutability": "nonpayable",
      "type": "function"
    },
    {
      "inputs": [
        {
          "internalType": "uint256",
          "name": "_auctionId",
          "type": "uint256"
        }
      ],
      "name": "deliveryPrepareByItemId",
      "outputs": [],
      "stateMutability": "nonpayable",
      "type": "function"
    },
    {
      "inputs": [
        {
          "internalType": "uint256",
          "name": "_auctionId",
          "type": "uint256"
        }
      ],
      "name": "getDeliveryStatusByAuctionId",
      "outputs": [
        {
          "internalType": "enum SupplyContract.DeliveryStatus",
          "name": "",
          "type": "uint8"
        }
      ],
      "stateMutability": "view",
      "type": "function",
      "constant": true
    },
    {
      "inputs": [
        {
          "internalType": "uint256",
          "name": "_auctionId",
          "type": "uint256"
        },
        {
          "internalType": "string",
          "name": "_envInfo",
          "type": "string"
        }
      ],
      "name": "pushEnvInformationByItemId",
      "outputs": [],
      "stateMutability": "nonpayable",
      "type": "function"
    },
    {
      "inputs": [
        {
          "internalType": "uint256",
          "name": "_auctionId",
          "type": "uint256"
        }
      ],
      "name": "getEnvInformatioByItemId",
      "outputs": [
        {
          "internalType": "string[]",
          "name": "",
          "type": "string[]"
        }
      ],
      "stateMutability": "view",
      "type": "function",
      "constant": true
    }
  ],
  "bytecode": "0x608060405234801561001057600080fd5b50604051610e49380380610e49833981810160405281019061003291906100db565b806000806101000a81548173ffffffffffffffffffffffffffffffffffffffff021916908373ffffffffffffffffffffffffffffffffffffffff16021790555050610108565b600080fd5b600073ffffffffffffffffffffffffffffffffffffffff82169050919050565b60006100a88261007d565b9050919050565b6100b88161009d565b81146100c357600080fd5b50565b6000815190506100d5816100af565b92915050565b6000602082840312156100f1576100f0610078565b5b60006100ff848285016100c6565b91505092915050565b610d32806101176000396000f3fe608060405234801561001057600080fd5b50600436106100885760003560e01c8063843e637a1161005b578063843e637a146101115780638b030ce51461012d578063987a34f81461015d578063fd50a5241461018e57610088565b806302495b471461008d5780630b6b2153146100bd5780631a2dc6cc146100d957806373cacbb6146100f5575b600080fd5b6100a760048036038101906100a2919061058e565b6101be565b6040516100b491906105ca565b60405180910390f35b6100d760048036038101906100d2919061058e565b6101d6565b005b6100f360048036038101906100ee919061072b565b61023c565b005b61010f600480360381019061010a919061058e565b610289565b005b61012b6004803603810190610126919061058e565b6102ef565b005b6101476004803603810190610142919061058e565b610355565b60405161015491906107fe565b60405180910390f35b6101776004803603810190610172919061058e565b610382565b60405161018592919061085a565b60405180910390f35b6101a860048036038101906101a3919061058e565b6103d3565b6040516101b591906109cd565b60405180910390f35b60016020528060005260406000206000915090505481565b8060018060028111156101ec576101eb610787565b5b6002600084815260200190815260200160002060040160149054906101000a900460ff16600281111561022257610221610787565b5b1461022c57600080fd5b6102378360026104c2565b505050565b60026000838152602001908152602001600020600301819080600181540180825580915050600190039060005260206000200160009091909190915090816102849190610bfb565b505050565b80600280600281111561029f5761029e610787565b5b6002600084815260200190815260200160002060040160149054906101000a900460ff1660028111156102d5576102d4610787565b5b146102df57600080fd5b6102ea8360006104c2565b505050565b80600080600281111561030557610304610787565b5b6002600084815260200190815260200160002060040160149054906101000a900460ff16600281111561033b5761033a610787565b5b1461034557600080fd5b6103508360016104c2565b505050565b60006002600083815260200190815260200160002060040160149054906101000a900460ff169050919050565b60026020528060005260406000206000915090508060040160009054906101000a900473ffffffffffffffffffffffffffffffffffffffff16908060040160149054906101000a900460ff16905082565b606060026000838152602001908152602001600020600301805480602002602001604051908101604052809291908181526020016000905b828210156104b757838290600052602060002001805461042a90610a1e565b80601f016020809104026020016040519081016040528092919081815260200182805461045690610a1e565b80156104a35780601f10610478576101008083540402835291602001916104a3565b820191906000526020600020905b81548152906001019060200180831161048657829003601f168201915b50505050508152602001906001019061040b565b505050509050919050565b806002600084815260200190815260200160002060040160146101000a81548160ff021916908360028111156104fb576104fa610787565b5b0217905550426002600084815260200190815260200160002060000182600281111561052a57610529610787565b5b6003811061053b5761053a610ccd565b5b01819055505050565b6000604051905090565b600080fd5b600080fd5b6000819050919050565b61056b81610558565b811461057657600080fd5b50565b60008135905061058881610562565b92915050565b6000602082840312156105a4576105a361054e565b5b60006105b284828501610579565b91505092915050565b6105c481610558565b82525050565b60006020820190506105df60008301846105bb565b92915050565b600080fd5b600080fd5b6000601f19601f8301169050919050565b7f4e487b7100000000000000000000000000000000000000000000000000000000600052604160045260246000fd5b610638826105ef565b810181811067ffffffffffffffff8211171561065757610656610600565b5b80604052505050565b600061066a610544565b9050610676828261062f565b919050565b600067ffffffffffffffff82111561069657610695610600565b5b61069f826105ef565b9050602081019050919050565b82818337600083830152505050565b60006106ce6106c98461067b565b610660565b9050828152602081018484840111156106ea576106e96105ea565b5b6106f58482856106ac565b509392505050565b600082601f830112610712576107116105e5565b5b81356107228482602086016106bb565b91505092915050565b600080604083850312156107425761074161054e565b5b600061075085828601610579565b925050602083013567ffffffffffffffff81111561077157610770610553565b5b61077d858286016106fd565b9150509250929050565b7f4e487b7100000000000000000000000000000000000000000000000000000000600052602160045260246000fd5b600381106107c7576107c6610787565b5b50565b60008190506107d8826107b6565b919050565b60006107e8826107ca565b9050919050565b6107f8816107dd565b82525050565b600060208201905061081360008301846107ef565b92915050565b600073ffffffffffffffffffffffffffffffffffffffff82169050919050565b600061084482610819565b9050919050565b61085481610839565b82525050565b600060408201905061086f600083018561084b565b61087c60208301846107ef565b9392505050565b600081519050919050565b600082825260208201905092915050565b6000819050602082019050919050565b600081519050919050565b600082825260208201905092915050565b60005b838110156108e95780820151818401526020810190506108ce565b838111156108f8576000848401525b50505050565b6000610909826108af565b61091381856108ba565b93506109238185602086016108cb565b61092c816105ef565b840191505092915050565b600061094383836108fe565b905092915050565b6000602082019050919050565b600061096382610883565b61096d818561088e565b93508360208202850161097f8561089f565b8060005b858110156109bb578484038952815161099c8582610937565b94506109a78361094b565b925060208a01995050600181019050610983565b50829750879550505050505092915050565b600060208201905081810360008301526109e78184610958565b905092915050565b7f4e487b7100000000000000000000000000000000000000000000000000000000600052602260045260246000fd5b60006002820490506001821680610a3657607f821691505b602082108103610a4957610a486109ef565b5b50919050565b60008190508160005260206000209050919050565b60006020601f8301049050919050565b600082821b905092915050565b600060088302610ab17fffffffffffffffffffffffffffffffffffffffffffffffffffffffffffffffff82610a74565b610abb8683610a74565b95508019841693508086168417925050509392505050565b6000819050919050565b6000610af8610af3610aee84610558565b610ad3565b610558565b9050919050565b6000819050919050565b610b1283610add565b610b26610b1e82610aff565b848454610a81565b825550505050565b600090565b610b3b610b2e565b610b46818484610b09565b505050565b5b81811015610b6a57610b5f600082610b33565b600181019050610b4c565b5050565b601f821115610baf57610b8081610a4f565b610b8984610a64565b81016020851015610b98578190505b610bac610ba485610a64565b830182610b4b565b50505b505050565b600082821c905092915050565b6000610bd260001984600802610bb4565b1980831691505092915050565b6000610beb8383610bc1565b9150826002028217905092915050565b610c04826108af565b67ffffffffffffffff811115610c1d57610c1c610600565b5b610c278254610a1e565b610c32828285610b6e565b600060209050601f831160018114610c655760008415610c53578287015190505b610c5d8582610bdf565b865550610cc5565b601f198416610c7386610a4f565b60005b82811015610c9b57848901518255600182019150602085019450602081019050610c76565b86831015610cb85784890151610cb4601f891682610bc1565b8355505b6001600288020188555050505b505050505050565b7f4e487b7100000000000000000000000000000000000000000000000000000000600052603260045260246000fdfea2646970667358221220d0fb6c6492d2db13e923e80d87a8dc39f9145748c4133025e1009fdd9596b05764736f6c634300080f0033",
  "immutableReferences": {},
  "source": "// SPDX-License-Identifier: MIT\n\n\npragma solidity >=0.5.16;\n\nimport \"./Item.sol\";\n\ncontract SupplyContract {\n\n    ItemContract itemToken;\n\n    constructor(address _itemToken)\n    {\n        itemToken = ItemContract(_itemToken);\n    }\n\n    enum DeliveryStatus{\n        Empty,\n        Prepare,\n        Delivery\n    }\n\n    struct SupplyData{\n        uint256[3] deliveryTimeStamp;\n        string [] envInformation;\n        address producer;\n        DeliveryStatus deliveryStatus;\n    }\n\n    mapping(uint256 => uint256) public auctionTree;\n    mapping(uint256 => SupplyData) public supplyData; // auctionBlockNumber -> supplyData\n\n    modifier inState(uint256 _auctionId, DeliveryStatus _deliveryStatus) {\n        require(supplyData[_auctionId].deliveryStatus == _deliveryStatus);\n        _;\n    }\n\n    function updateDeliveryStatus(uint256 _auctionId, DeliveryStatus _deliveryStatus) internal {\n        supplyData[_auctionId].deliveryStatus = _deliveryStatus;\n        supplyData[_auctionId].deliveryTimeStamp[uint(_deliveryStatus)] = block.timestamp;\n    }\n\n    function deliveryStartByItemId(uint256 _auctionId) public inState(_auctionId, DeliveryStatus.Prepare){\n        updateDeliveryStatus(_auctionId, DeliveryStatus.Delivery);\n    }\n\n    function deliveryEndByItemId(uint256 _auctionId) public inState(_auctionId, DeliveryStatus.Delivery){\n        updateDeliveryStatus(_auctionId, DeliveryStatus.Empty);\n    }\n\n    function deliveryPrepareByItemId(uint256 _auctionId) public inState(_auctionId, DeliveryStatus.Empty){\n        updateDeliveryStatus(_auctionId, DeliveryStatus.Prepare);\n    }\n\n    function getDeliveryStatusByAuctionId(uint256 _auctionId) public view returns(DeliveryStatus){\n        return supplyData[_auctionId].deliveryStatus;\n    }\n\n    //   \n    function pushEnvInformationByItemId(uint256 _auctionId, string memory _envInfo) public{\n        supplyData[_auctionId].envInformation.push(_envInfo);\n    } //  \n\n    function getEnvInformatioByItemId(uint256 _auctionId) public view returns(string[] memory){\n        return supplyData[_auctionId].envInformation;\n    } //  \n\n}",
  "sourcePath": "/Users/c_rbi/testNet/PNU-milknmeat_test/back-end/smart_contract/contracts/Supply.sol",
  "compiler": {
    "name": "solc",
    "version": "0.8.15+commit.e14f2714.Emscripten.clang"
  },
  "schemaVersion": "3.4.10",
  "updatedAt": "2022-09-29T10:04:45.835Z",
  "networkType": "ethereum",
  "devdoc": {
    "kind": "dev",
    "methods": {},
    "version": 1
  },
  "userdoc": {
    "kind": "user",
    "methods": {},
    "version": 1
  }
}